{
  "_format": "hh-sol-artifact-1",
  "contractName": "NFTGallery",
  "sourceName": "contracts/ArtGallery.sol",
  "abi": [
    {
      "inputs": [],
      "stateMutability": "nonpayable",
      "type": "constructor"
    },
    {
      "inputs": [
        {
          "internalType": "address",
          "name": "sender",
          "type": "address"
        },
        {
          "internalType": "uint256",
          "name": "tokenId",
          "type": "uint256"
        },
        {
          "internalType": "address",
          "name": "owner",
          "type": "address"
        }
      ],
      "name": "ERC721IncorrectOwner",
      "type": "error"
    },
    {
      "inputs": [
        {
          "internalType": "address",
          "name": "operator",
          "type": "address"
        },
        {
          "internalType": "uint256",
          "name": "tokenId",
          "type": "uint256"
        }
      ],
      "name": "ERC721InsufficientApproval",
      "type": "error"
    },
    {
      "inputs": [
        {
          "internalType": "address",
          "name": "approver",
          "type": "address"
        }
      ],
      "name": "ERC721InvalidApprover",
      "type": "error"
    },
    {
      "inputs": [
        {
          "internalType": "address",
          "name": "operator",
          "type": "address"
        }
      ],
      "name": "ERC721InvalidOperator",
      "type": "error"
    },
    {
      "inputs": [
        {
          "internalType": "address",
          "name": "owner",
          "type": "address"
        }
      ],
      "name": "ERC721InvalidOwner",
      "type": "error"
    },
    {
      "inputs": [
        {
          "internalType": "address",
          "name": "receiver",
          "type": "address"
        }
      ],
      "name": "ERC721InvalidReceiver",
      "type": "error"
    },
    {
      "inputs": [
        {
          "internalType": "address",
          "name": "sender",
          "type": "address"
        }
      ],
      "name": "ERC721InvalidSender",
      "type": "error"
    },
    {
      "inputs": [
        {
          "internalType": "uint256",
          "name": "tokenId",
          "type": "uint256"
        }
      ],
      "name": "ERC721NonexistentToken",
      "type": "error"
    },
    {
      "anonymous": false,
      "inputs": [
        {
          "indexed": true,
          "internalType": "address",
          "name": "owner",
          "type": "address"
        },
        {
          "indexed": true,
          "internalType": "address",
          "name": "approved",
          "type": "address"
        },
        {
          "indexed": true,
          "internalType": "uint256",
          "name": "tokenId",
          "type": "uint256"
        }
      ],
      "name": "Approval",
      "type": "event"
    },
    {
      "anonymous": false,
      "inputs": [
        {
          "indexed": true,
          "internalType": "address",
          "name": "owner",
          "type": "address"
        },
        {
          "indexed": true,
          "internalType": "address",
          "name": "operator",
          "type": "address"
        },
        {
          "indexed": false,
          "internalType": "bool",
          "name": "approved",
          "type": "bool"
        }
      ],
      "name": "ApprovalForAll",
      "type": "event"
    },
    {
      "anonymous": false,
      "inputs": [
        {
          "indexed": false,
          "internalType": "uint256",
          "name": "id",
          "type": "uint256"
        },
        {
          "indexed": false,
          "internalType": "address",
          "name": "liker",
          "type": "address"
        }
      ],
      "name": "ArtLiked",
      "type": "event"
    },
    {
      "anonymous": false,
      "inputs": [
        {
          "indexed": false,
          "internalType": "uint256",
          "name": "id",
          "type": "uint256"
        },
        {
          "indexed": false,
          "internalType": "address",
          "name": "buyer",
          "type": "address"
        },
        {
          "indexed": false,
          "internalType": "uint256",
          "name": "price",
          "type": "uint256"
        }
      ],
      "name": "ArtSold",
      "type": "event"
    },
    {
      "anonymous": false,
      "inputs": [
        {
          "indexed": false,
          "internalType": "uint256",
          "name": "id",
          "type": "uint256"
        },
        {
          "indexed": false,
          "internalType": "string",
          "name": "uri",
          "type": "string"
        }
      ],
      "name": "ArtUploaded",
      "type": "event"
    },
    {
      "anonymous": false,
      "inputs": [
        {
          "indexed": false,
          "internalType": "uint256",
          "name": "id",
          "type": "uint256"
        },
        {
          "indexed": false,
          "internalType": "bool",
          "name": "isActive",
          "type": "bool"
        }
      ],
      "name": "AuctionToggled",
      "type": "event"
    },
    {
      "anonymous": false,
      "inputs": [
        {
          "indexed": false,
          "internalType": "uint256",
          "name": "id",
          "type": "uint256"
        },
        {
          "indexed": false,
          "internalType": "address",
          "name": "bidder",
          "type": "address"
        },
        {
          "indexed": false,
          "internalType": "uint256",
          "name": "bidAmount",
          "type": "uint256"
        }
      ],
      "name": "BidPlaced",
      "type": "event"
    },
    {
      "anonymous": false,
      "inputs": [
        {
          "indexed": false,
          "internalType": "uint256",
          "name": "id",
          "type": "uint256"
        },
        {
          "indexed": false,
          "internalType": "uint256",
          "name": "xCoordinate",
          "type": "uint256"
        },
        {
          "indexed": false,
          "internalType": "uint256",
          "name": "yCoordinate",
          "type": "uint256"
        },
        {
          "indexed": false,
          "internalType": "uint256",
          "name": "rotation",
          "type": "uint256"
        }
      ],
      "name": "CoordinatesChanged",
      "type": "event"
    },
    {
      "anonymous": false,
      "inputs": [
        {
          "indexed": true,
          "internalType": "address",
          "name": "from",
          "type": "address"
        },
        {
          "indexed": true,
          "internalType": "address",
          "name": "to",
          "type": "address"
        },
        {
          "indexed": true,
          "internalType": "uint256",
          "name": "tokenId",
          "type": "uint256"
        }
      ],
      "name": "Transfer",
      "type": "event"
    },
    {
      "inputs": [
        {
          "internalType": "address",
          "name": "to",
          "type": "address"
        },
        {
          "internalType": "uint256",
          "name": "tokenId",
          "type": "uint256"
        }
      ],
      "name": "approve",
      "outputs": [],
      "stateMutability": "nonpayable",
      "type": "function"
    },
    {
      "inputs": [
        {
          "internalType": "uint256",
          "name": "",
          "type": "uint256"
        }
      ],
      "name": "artPieces",
      "outputs": [
        {
          "internalType": "uint256",
          "name": "id",
          "type": "uint256"
        },
        {
          "internalType": "string",
          "name": "uri",
          "type": "string"
        },
        {
          "internalType": "address payable",
          "name": "owner",
          "type": "address"
        },
        {
          "internalType": "uint256",
          "name": "maxBid",
          "type": "uint256"
        },
        {
          "internalType": "address",
          "name": "maxBidder",
          "type": "address"
        },
        {
          "internalType": "bool",
          "name": "auctionActive",
          "type": "bool"
        },
        {
          "internalType": "bool",
          "name": "sold",
          "type": "bool"
        },
        {
          "internalType": "uint256",
          "name": "likes",
          "type": "uint256"
        },
        {
          "internalType": "uint256",
          "name": "xCoordinate",
          "type": "uint256"
        },
        {
          "internalType": "uint256",
          "name": "yCoordinate",
          "type": "uint256"
        },
        {
          "internalType": "uint256",
          "name": "rotation",
          "type": "uint256"
        }
      ],
      "stateMutability": "view",
      "type": "function"
    },
    {
      "inputs": [
        {
          "internalType": "address",
          "name": "owner",
          "type": "address"
        }
      ],
      "name": "balanceOf",
      "outputs": [
        {
          "internalType": "uint256",
          "name": "",
          "type": "uint256"
        }
      ],
      "stateMutability": "view",
      "type": "function"
    },
    {
      "inputs": [
        {
          "internalType": "uint256",
          "name": "",
          "type": "uint256"
        },
        {
          "internalType": "uint256",
          "name": "",
          "type": "uint256"
        }
      ],
      "name": "bidders",
      "outputs": [
        {
          "internalType": "address",
          "name": "",
          "type": "address"
        }
      ],
      "stateMutability": "view",
      "type": "function"
    },
    {
      "inputs": [
        {
          "internalType": "uint256",
          "name": "tokenId",
          "type": "uint256"
        }
      ],
      "name": "burn",
      "outputs": [],
      "stateMutability": "nonpayable",
      "type": "function"
    },
    {
      "inputs": [
        {
          "internalType": "uint256",
          "name": "_id",
          "type": "uint256"
        }
      ],
      "name": "buyArt",
      "outputs": [],
      "stateMutability": "payable",
      "type": "function"
    },
    {
      "inputs": [
        {
          "internalType": "uint256",
          "name": "_id",
          "type": "uint256"
        }
      ],
      "name": "endAuction",
      "outputs": [],
      "stateMutability": "nonpayable",
      "type": "function"
    },
    {
      "inputs": [],
      "name": "getAllPosts",
      "outputs": [
        {
          "components": [
            {
              "internalType": "uint256",
              "name": "id",
              "type": "uint256"
            },
            {
              "internalType": "string",
              "name": "uri",
              "type": "string"
            },
            {
              "internalType": "address payable",
              "name": "owner",
              "type": "address"
            },
            {
              "internalType": "uint256",
              "name": "maxBid",
              "type": "uint256"
            },
            {
              "internalType": "address",
              "name": "maxBidder",
              "type": "address"
            },
            {
              "internalType": "bool",
              "name": "auctionActive",
              "type": "bool"
            },
            {
              "internalType": "bool",
              "name": "sold",
              "type": "bool"
            },
            {
              "internalType": "uint256",
              "name": "likes",
              "type": "uint256"
            },
            {
              "internalType": "uint256",
              "name": "xCoordinate",
              "type": "uint256"
            },
            {
              "internalType": "uint256",
              "name": "yCoordinate",
              "type": "uint256"
            },
            {
              "internalType": "uint256",
              "name": "rotation",
              "type": "uint256"
            }
          ],
          "internalType": "struct NFTGallery.ArtPiece[]",
          "name": "",
          "type": "tuple[]"
        }
      ],
      "stateMutability": "view",
      "type": "function"
    },
    {
      "inputs": [
        {
          "internalType": "uint256",
          "name": "tokenId",
          "type": "uint256"
        }
      ],
      "name": "getApproved",
      "outputs": [
        {
          "internalType": "address",
          "name": "",
          "type": "address"
        }
      ],
      "stateMutability": "view",
      "type": "function"
    },
    {
      "inputs": [
        {
          "internalType": "uint256",
          "name": "_id",
          "type": "uint256"
        }
      ],
      "name": "getBidders",
      "outputs": [
        {
          "internalType": "address[]",
          "name": "",
          "type": "address[]"
        }
      ],
      "stateMutability": "view",
      "type": "function"
    },
    {
      "inputs": [
        {
          "internalType": "uint256",
          "name": "_id",
          "type": "uint256"
        }
      ],
      "name": "getMaxBid",
      "outputs": [
        {
          "internalType": "uint256",
          "name": "",
          "type": "uint256"
        }
      ],
      "stateMutability": "view",
      "type": "function"
    },
    {
      "inputs": [],
      "name": "getMyArtPieces",
      "outputs": [
        {
          "components": [
            {
              "internalType": "uint256",
              "name": "id",
              "type": "uint256"
            },
            {
              "internalType": "string",
              "name": "uri",
              "type": "string"
            },
            {
              "internalType": "address payable",
              "name": "owner",
              "type": "address"
            },
            {
              "internalType": "uint256",
              "name": "maxBid",
              "type": "uint256"
            },
            {
              "internalType": "address",
              "name": "maxBidder",
              "type": "address"
            },
            {
              "internalType": "bool",
              "name": "auctionActive",
              "type": "bool"
            },
            {
              "internalType": "bool",
              "name": "sold",
              "type": "bool"
            },
            {
              "internalType": "uint256",
              "name": "likes",
              "type": "uint256"
            },
            {
              "internalType": "uint256",
              "name": "xCoordinate",
              "type": "uint256"
            },
            {
              "internalType": "uint256",
              "name": "yCoordinate",
              "type": "uint256"
            },
            {
              "internalType": "uint256",
              "name": "rotation",
              "type": "uint256"
            }
          ],
          "internalType": "struct NFTGallery.ArtPiece[]",
          "name": "",
          "type": "tuple[]"
        }
      ],
      "stateMutability": "view",
      "type": "function"
    },
    {
      "inputs": [
        {
          "internalType": "address",
          "name": "owner",
          "type": "address"
        },
        {
          "internalType": "address",
          "name": "operator",
          "type": "address"
        }
      ],
      "name": "isApprovedForAll",
      "outputs": [
        {
          "internalType": "bool",
          "name": "",
          "type": "bool"
        }
      ],
      "stateMutability": "view",
      "type": "function"
    },
    {
      "inputs": [
        {
          "internalType": "uint256",
          "name": "_id",
          "type": "uint256"
        }
      ],
      "name": "likeArt",
      "outputs": [],
      "stateMutability": "nonpayable",
      "type": "function"
    },
    {
      "inputs": [],
      "name": "name",
      "outputs": [
        {
          "internalType": "string",
          "name": "",
          "type": "string"
        }
      ],
      "stateMutability": "view",
      "type": "function"
    },
    {
      "inputs": [
        {
          "internalType": "uint256",
          "name": "tokenId",
          "type": "uint256"
        }
      ],
      "name": "ownerOf",
      "outputs": [
        {
          "internalType": "address",
          "name": "",
          "type": "address"
        }
      ],
      "stateMutability": "view",
      "type": "function"
    },
    {
      "inputs": [
        {
          "internalType": "uint256",
          "name": "_id",
          "type": "uint256"
        }
      ],
      "name": "placeBid",
      "outputs": [],
      "stateMutability": "payable",
      "type": "function"
    },
    {
      "inputs": [
        {
          "internalType": "address",
          "name": "from",
          "type": "address"
        },
        {
          "internalType": "address",
          "name": "to",
          "type": "address"
        },
        {
          "internalType": "uint256",
          "name": "tokenId",
          "type": "uint256"
        }
      ],
      "name": "safeTransferFrom",
      "outputs": [],
      "stateMutability": "nonpayable",
      "type": "function"
    },
    {
      "inputs": [
        {
          "internalType": "address",
          "name": "from",
          "type": "address"
        },
        {
          "internalType": "address",
          "name": "to",
          "type": "address"
        },
        {
          "internalType": "uint256",
          "name": "tokenId",
          "type": "uint256"
        },
        {
          "internalType": "bytes",
          "name": "data",
          "type": "bytes"
        }
      ],
      "name": "safeTransferFrom",
      "outputs": [],
      "stateMutability": "nonpayable",
      "type": "function"
    },
    {
      "inputs": [
        {
          "internalType": "address",
          "name": "operator",
          "type": "address"
        },
        {
          "internalType": "bool",
          "name": "approved",
          "type": "bool"
        }
      ],
      "name": "setApprovalForAll",
      "outputs": [],
      "stateMutability": "nonpayable",
      "type": "function"
    },
    {
      "inputs": [
        {
          "internalType": "uint256",
          "name": "_id",
          "type": "uint256"
        },
        {
          "internalType": "uint256",
          "name": "_xCoordinate",
          "type": "uint256"
        },
        {
          "internalType": "uint256",
          "name": "_yCoordinate",
          "type": "uint256"
        },
        {
          "internalType": "uint256",
          "name": "_rotation",
          "type": "uint256"
        }
      ],
      "name": "setCoordinates",
      "outputs": [],
      "stateMutability": "nonpayable",
      "type": "function"
    },
    {
      "inputs": [
        {
          "internalType": "bytes4",
          "name": "interfaceId",
          "type": "bytes4"
        }
      ],
      "name": "supportsInterface",
      "outputs": [
        {
          "internalType": "bool",
          "name": "",
          "type": "bool"
        }
      ],
      "stateMutability": "view",
      "type": "function"
    },
    {
      "inputs": [],
      "name": "symbol",
      "outputs": [
        {
          "internalType": "string",
          "name": "",
          "type": "string"
        }
      ],
      "stateMutability": "view",
      "type": "function"
    },
    {
      "inputs": [
        {
          "internalType": "uint256",
          "name": "_id",
          "type": "uint256"
        }
      ],
      "name": "toggleAuction",
      "outputs": [],
      "stateMutability": "nonpayable",
      "type": "function"
    },
    {
      "inputs": [
        {
          "internalType": "uint256",
          "name": "tokenId",
          "type": "uint256"
        }
      ],
      "name": "tokenURI",
      "outputs": [
        {
          "internalType": "string",
          "name": "",
          "type": "string"
        }
      ],
      "stateMutability": "view",
      "type": "function"
    },
    {
      "inputs": [],
      "name": "totalPosts",
      "outputs": [
        {
          "internalType": "uint256",
          "name": "",
          "type": "uint256"
        }
      ],
      "stateMutability": "view",
      "type": "function"
    },
    {
      "inputs": [
        {
          "internalType": "address",
          "name": "from",
          "type": "address"
        },
        {
          "internalType": "address",
          "name": "to",
          "type": "address"
        },
        {
          "internalType": "uint256",
          "name": "tokenId",
          "type": "uint256"
        }
      ],
      "name": "transferFrom",
      "outputs": [],
      "stateMutability": "nonpayable",
      "type": "function"
    },
    {
      "inputs": [
        {
          "internalType": "string",
          "name": "_uri",
          "type": "string"
        }
      ],
      "name": "uploadArt",
      "outputs": [],
      "stateMutability": "nonpayable",
      "type": "function"
    }
  ],
  "bytecode": "0x60806040523480156200001157600080fd5b506040518060400160405280600a81526020017f47616c6c657279417274000000000000000000000000000000000000000000008152506040518060400160405280600481526020017f474152540000000000000000000000000000000000000000000000000000000081525081600090816200008f919062000324565b508060019081620000a1919062000324565b5050506200040b565b600081519050919050565b7f4e487b7100000000000000000000000000000000000000000000000000000000600052604160045260246000fd5b7f4e487b7100000000000000000000000000000000000000000000000000000000600052602260045260246000fd5b600060028204905060018216806200012c57607f821691505b602082108103620001425762000141620000e4565b5b50919050565b60008190508160005260206000209050919050565b60006020601f8301049050919050565b600082821b905092915050565b600060088302620001ac7fffffffffffffffffffffffffffffffffffffffffffffffffffffffffffffffff826200016d565b620001b886836200016d565b95508019841693508086168417925050509392505050565b6000819050919050565b6000819050919050565b600062000205620001ff620001f984620001d0565b620001da565b620001d0565b9050919050565b6000819050919050565b6200022183620001e4565b6200023962000230826200020c565b8484546200017a565b825550505050565b600090565b6200025062000241565b6200025d81848462000216565b505050565b5b8181101562000285576200027960008262000246565b60018101905062000263565b5050565b601f821115620002d4576200029e8162000148565b620002a9846200015d565b81016020851015620002b9578190505b620002d1620002c8856200015d565b83018262000262565b50505b505050565b600082821c905092915050565b6000620002f960001984600802620002d9565b1980831691505092915050565b6000620003148383620002e6565b9150826002028217905092915050565b6200032f82620000aa565b67ffffffffffffffff8111156200034b576200034a620000b5565b5b62000357825462000113565b6200036482828562000289565b600060209050601f8311600181146200039c576000841562000387578287015190505b62000393858262000306565b86555062000403565b601f198416620003ac8662000148565b60005b82811015620003d657848901518255600182019150602085019450602081019050620003af565b86831015620003f65784890151620003f2601f891682620002e6565b8355505b6001600288020188555050505b505050505050565b6147a6806200041b6000396000f3fe6080604052600436106101b75760003560e01c8063690035ad116100ec578063b88d4fde1161008a578063c87b56dd11610064578063c87b56dd14610627578063d1c1120514610664578063e985e9c5146106a1578063fc7a900b146106de576101b7565b8063b88d4fde146105ac578063b9a2de3a146105d5578063c145e530146105fe576101b7565b806395d89b41116100c657806395d89b41146105135780639979ef451461053e578063a22cb4651461055a578063b424750714610583576101b7565b8063690035ad1461048057806370a08231146104ab5780638e53fb41146104e8576101b7565b80633ce82a2f116101595780634fa7b507116101335780634fa7b507146103a057806354b7e7e7146103dd578063617fbce9146104065780636352211e14610443576101b7565b80633ce82a2f1461030757806342842e0e1461034e57806342966c6814610377576101b7565b8063095ea7b311610195578063095ea7b31461026157806323b872dd1461028a57806330561100146102b3578063331793b4146102de576101b7565b806301ffc9a7146101bc57806306fdde03146101f9578063081812fc14610224575b600080fd5b3480156101c857600080fd5b506101e360048036038101906101de91906131ce565b6106fa565b6040516101f09190613216565b60405180910390f35b34801561020557600080fd5b5061020e6107dc565b60405161021b91906132c1565b60405180910390f35b34801561023057600080fd5b5061024b60048036038101906102469190613319565b61086e565b6040516102589190613387565b60405180910390f35b34801561026d57600080fd5b50610288600480360381019061028391906133ce565b61088a565b005b34801561029657600080fd5b506102b160048036038101906102ac919061340e565b6108a0565b005b3480156102bf57600080fd5b506102c86109a2565b6040516102d591906136aa565b60405180910390f35b3480156102ea57600080fd5b5061030560048036038101906103009190613801565b610c22565b005b34801561031357600080fd5b5061032e60048036038101906103299190613319565b610dae565b6040516103459b9a99989796959493929190613868565b60405180910390f35b34801561035a57600080fd5b506103756004803603810190610370919061340e565b610eea565b005b34801561038357600080fd5b5061039e60048036038101906103999190613319565b610f0a565b005b3480156103ac57600080fd5b506103c760048036038101906103c29190613319565b610f21565b6040516103d491906139c9565b60405180910390f35b3480156103e957600080fd5b5061040460048036038101906103ff9190613319565b610fc2565b005b34801561041257600080fd5b5061042d60048036038101906104289190613319565b61114d565b60405161043a91906139eb565b60405180910390f35b34801561044f57600080fd5b5061046a60048036038101906104659190613319565b61116d565b6040516104779190613387565b60405180910390f35b34801561048c57600080fd5b5061049561117f565b6040516104a291906136aa565b60405180910390f35b3480156104b757600080fd5b506104d260048036038101906104cd9190613a06565b611509565b6040516104df91906139eb565b60405180910390f35b3480156104f457600080fd5b506104fd6115c3565b60405161050a91906139eb565b60405180910390f35b34801561051f57600080fd5b506105286115c9565b60405161053591906132c1565b60405180910390f35b61055860048036038101906105539190613319565b61165b565b005b34801561056657600080fd5b50610581600480360381019061057c9190613a5f565b6118ff565b005b34801561058f57600080fd5b506105aa60048036038101906105a59190613a9f565b611915565b005b3480156105b857600080fd5b506105d360048036038101906105ce9190613ba7565b611a62565b005b3480156105e157600080fd5b506105fc60048036038101906105f79190613319565b611a87565b005b34801561060a57600080fd5b5061062560048036038101906106209190613319565b611dc6565b005b34801561063357600080fd5b5061064e60048036038101906106499190613319565b611e73565b60405161065b91906132c1565b60405180910390f35b34801561067057600080fd5b5061068b60048036038101906106869190613c2a565b611edc565b6040516106989190613387565b60405180910390f35b3480156106ad57600080fd5b506106c860048036038101906106c39190613c6a565b611f2a565b6040516106d59190613216565b60405180910390f35b6106f860048036038101906106f39190613319565b611fbe565b005b60007f80ac58cd000000000000000000000000000000000000000000000000000000007bffffffffffffffffffffffffffffffffffffffffffffffffffffffff1916827bffffffffffffffffffffffffffffffffffffffffffffffffffffffff191614806107c557507f5b5e139f000000000000000000000000000000000000000000000000000000007bffffffffffffffffffffffffffffffffffffffffffffffffffffffff1916827bffffffffffffffffffffffffffffffffffffffffffffffffffffffff1916145b806107d557506107d482612230565b5b9050919050565b6060600080546107eb90613cd9565b80601f016020809104026020016040519081016040528092919081815260200182805461081790613cd9565b80156108645780601f1061083957610100808354040283529160200191610864565b820191906000526020600020905b81548152906001019060200180831161084757829003601f168201915b5050505050905090565b60006108798261229a565b5061088382612322565b9050919050565b61089c828261089761235f565b612367565b5050565b600073ffffffffffffffffffffffffffffffffffffffff168273ffffffffffffffffffffffffffffffffffffffff16036109125760006040517f64a0ae920000000000000000000000000000000000000000000000000000000081526004016109099190613387565b60405180910390fd5b6000610926838361092161235f565b612379565b90508373ffffffffffffffffffffffffffffffffffffffff168173ffffffffffffffffffffffffffffffffffffffff161461099c578382826040517f64283d7b00000000000000000000000000000000000000000000000000000000815260040161099393929190613d0a565b60405180910390fd5b50505050565b6060600060065467ffffffffffffffff8111156109c2576109c16136d6565b5b6040519080825280602002602001820160405280156109fb57816020015b6109e86130d8565b8152602001906001900390816109e05790505b5090506000600190505b6006548111610c1a57600760008281526020019081526020016000206040518061016001604052908160008201548152602001600182018054610a4790613cd9565b80601f0160208091040260200160405190810160405280929190818152602001828054610a7390613cd9565b8015610ac05780601f10610a9557610100808354040283529160200191610ac0565b820191906000526020600020905b815481529060010190602001808311610aa357829003601f168201915b505050505081526020016002820160009054906101000a900473ffffffffffffffffffffffffffffffffffffffff1673ffffffffffffffffffffffffffffffffffffffff1673ffffffffffffffffffffffffffffffffffffffff168152602001600382015481526020016004820160009054906101000a900473ffffffffffffffffffffffffffffffffffffffff1673ffffffffffffffffffffffffffffffffffffffff1673ffffffffffffffffffffffffffffffffffffffff1681526020016004820160149054906101000a900460ff161515151581526020016004820160159054906101000a900460ff1615151515815260200160058201548152602001600682015481526020016007820154815260200160088201548152505082600183610beb9190613d70565b81518110610bfc57610bfb613da4565b5b60200260200101819052508080610c1290613dd3565b915050610a05565b508091505090565b60066000815480929190610c3590613dd3565b9190505550610c4633600654612593565b60006007600060065481526020019081526020016000209050600654816000018190555081816001019081610c7b9190613fc7565b50338160020160006101000a81548173ffffffffffffffffffffffffffffffffffffffff021916908373ffffffffffffffffffffffffffffffffffffffff1602179055506000816003018190555060008160040160006101000a81548173ffffffffffffffffffffffffffffffffffffffff021916908373ffffffffffffffffffffffffffffffffffffffff16021790555060008160040160146101000a81548160ff02191690831515021790555060008160040160156101000a81548160ff021916908315150217905550600081600501819055506000816006018190555060008160070181905550600081600801819055507f31b4fbe7555d70f6df2c612d08a3b25ece509a0040ede5b6884030120f5bd9c460065483604051610da2929190614099565b60405180910390a15050565b6007602052806000526040600020600091509050806000015490806001018054610dd790613cd9565b80601f0160208091040260200160405190810160405280929190818152602001828054610e0390613cd9565b8015610e505780601f10610e2557610100808354040283529160200191610e50565b820191906000526020600020905b815481529060010190602001808311610e3357829003601f168201915b5050505050908060020160009054906101000a900473ffffffffffffffffffffffffffffffffffffffff16908060030154908060040160009054906101000a900473ffffffffffffffffffffffffffffffffffffffff16908060040160149054906101000a900460ff16908060040160159054906101000a900460ff1690806005015490806006015490806007015490806008015490508b565b610f0583838360405180602001604052806000815250611a62565b505050565b610f1d600082610f1861235f565b612379565b5050565b606060086000838152602001908152602001600020805480602002602001604051908101604052809291908181526020018280548015610fb657602002820191906000526020600020905b8160009054906101000a900473ffffffffffffffffffffffffffffffffffffffff1673ffffffffffffffffffffffffffffffffffffffff1681526020019060010190808311610f6c575b50505050509050919050565b806007600082815260200190815260200160002060040160159054906101000a900460ff1615611027576040517f08c379a000000000000000000000000000000000000000000000000000000000815260040161101e90614115565b60405180910390fd5b60006007600084815260200190815260200160002090508060020160009054906101000a900473ffffffffffffffffffffffffffffffffffffffff1673ffffffffffffffffffffffffffffffffffffffff163373ffffffffffffffffffffffffffffffffffffffff16146110d0576040517f08c379a00000000000000000000000000000000000000000000000000000000081526004016110c7906141a7565b60405180910390fd5b8060040160149054906101000a900460ff16158160040160146101000a81548160ff0219169083151502179055507fbf8ee19446f5eb969bd922f7d27434a792ccf5a3fb36c1754332919c5050df27838260040160149054906101000a900460ff166040516111409291906141c7565b60405180910390a1505050565b600060076000838152602001908152602001600020600301549050919050565b60006111788261229a565b9050919050565b6060600080600190505b600654811161121d573373ffffffffffffffffffffffffffffffffffffffff166007600083815260200190815260200160002060020160009054906101000a900473ffffffffffffffffffffffffffffffffffffffff1673ffffffffffffffffffffffffffffffffffffffff160361120a57818061120690613dd3565b9250505b808061121590613dd3565b915050611189565b5060008167ffffffffffffffff81111561123a576112396136d6565b5b60405190808252806020026020018201604052801561127357816020015b6112606130d8565b8152602001906001900390816112585790505b509050600080600190505b60065481116114ff573373ffffffffffffffffffffffffffffffffffffffff166007600083815260200190815260200160002060020160009054906101000a900473ffffffffffffffffffffffffffffffffffffffff1673ffffffffffffffffffffffffffffffffffffffff16036114ec5760076000828152602001908152602001600020604051806101600160405290816000820154815260200160018201805461132990613cd9565b80601f016020809104026020016040519081016040528092919081815260200182805461135590613cd9565b80156113a25780601f10611377576101008083540402835291602001916113a2565b820191906000526020600020905b81548152906001019060200180831161138557829003601f168201915b505050505081526020016002820160009054906101000a900473ffffffffffffffffffffffffffffffffffffffff1673ffffffffffffffffffffffffffffffffffffffff1673ffffffffffffffffffffffffffffffffffffffff168152602001600382015481526020016004820160009054906101000a900473ffffffffffffffffffffffffffffffffffffffff1673ffffffffffffffffffffffffffffffffffffffff1673ffffffffffffffffffffffffffffffffffffffff1681526020016004820160149054906101000a900460ff161515151581526020016004820160159054906101000a900460ff161515151581526020016005820154815260200160068201548152602001600782015481526020016008820154815250508383815181106114d2576114d1613da4565b5b602002602001018190525081806114e890613dd3565b9250505b80806114f790613dd3565b91505061127e565b5081935050505090565b60008073ffffffffffffffffffffffffffffffffffffffff168273ffffffffffffffffffffffffffffffffffffffff160361157c5760006040517f89c62b640000000000000000000000000000000000000000000000000000000081526004016115739190613387565b60405180910390fd5b600360008373ffffffffffffffffffffffffffffffffffffffff1673ffffffffffffffffffffffffffffffffffffffff168152602001908152602001600020549050919050565b60065481565b6060600180546115d890613cd9565b80601f016020809104026020016040519081016040528092919081815260200182805461160490613cd9565b80156116515780601f1061162657610100808354040283529160200191611651565b820191906000526020600020905b81548152906001019060200180831161163457829003601f168201915b5050505050905090565b806007600082815260200190815260200160002060040160149054906101000a900460ff166116bf576040517f08c379a00000000000000000000000000000000000000000000000000000000081526004016116b69061423c565b60405180910390fd5b816007600082815260200190815260200160002060040160159054906101000a900460ff1615611724576040517f08c379a000000000000000000000000000000000000000000000000000000000815260040161171b90614115565b60405180910390fd5b600060076000858152602001908152602001600020905080600301543411611781576040517f08c379a0000000000000000000000000000000000000000000000000000000008152600401611778906142a8565b60405180910390fd5b6000816003015411156117fe578060040160009054906101000a900473ffffffffffffffffffffffffffffffffffffffff1673ffffffffffffffffffffffffffffffffffffffff166108fc82600301549081150290604051600060405180830381858888f193505050501580156117fc573d6000803e3d6000fd5b505b348160030181905550338160040160006101000a81548173ffffffffffffffffffffffffffffffffffffffff021916908373ffffffffffffffffffffffffffffffffffffffff16021790555060086000858152602001908152602001600020339080600181540180825580915050600190039060005260206000200160009091909190916101000a81548173ffffffffffffffffffffffffffffffffffffffff021916908373ffffffffffffffffffffffffffffffffffffffff1602179055507f0e54eff26401bf69b81b26f60bd85ef47f5d85275c1d268d84f68d6897431c478433346040516118f1939291906142c8565b60405180910390a150505050565b61191161190a61235f565b838361268c565b5050565b60065484111561195a576040517f08c379a00000000000000000000000000000000000000000000000000000000081526004016119519061434b565b60405180910390fd5b60006007600086815260200190815260200160002090508060020160009054906101000a900473ffffffffffffffffffffffffffffffffffffffff1673ffffffffffffffffffffffffffffffffffffffff163373ffffffffffffffffffffffffffffffffffffffff1614611a03576040517f08c379a00000000000000000000000000000000000000000000000000000000081526004016119fa906143dd565b60405180910390fd5b8381600601819055508281600701819055508181600801819055507f2187756a52149ec71ccbbeb7d42cdaf81e2931c76875d7644e9fd168dfde45ec85858585604051611a5394939291906143fd565b60405180910390a15050505050565b611a6d8484846108a0565b611a81611a7861235f565b858585856127fb565b50505050565b806007600082815260200190815260200160002060040160149054906101000a900460ff1615611aec576040517f08c379a0000000000000000000000000000000000000000000000000000000008152600401611ae39061448e565b60405180910390fd5b816007600082815260200190815260200160002060040160159054906101000a900460ff1615611b51576040517f08c379a0000000000000000000000000000000000000000000000000000000008152600401611b4890614115565b60405180910390fd5b60006007600085815260200190815260200160002090508060040160149054906101000a900460ff1615611bba576040517f08c379a0000000000000000000000000000000000000000000000000000000008152600401611bb1906144fa565b60405180910390fd5b600073ffffffffffffffffffffffffffffffffffffffff168160040160009054906101000a900473ffffffffffffffffffffffffffffffffffffffff1673ffffffffffffffffffffffffffffffffffffffff1614611dc0578060020160009054906101000a900473ffffffffffffffffffffffffffffffffffffffff1673ffffffffffffffffffffffffffffffffffffffff166108fc82600301549081150290604051600060405180830381858888f19350505050158015611c80573d6000803e3d6000fd5b50611cd88160020160009054906101000a900473ffffffffffffffffffffffffffffffffffffffff168260040160009054906101000a900473ffffffffffffffffffffffffffffffffffffffff1683600001546129ac565b8060040160009054906101000a900473ffffffffffffffffffffffffffffffffffffffff168160020160006101000a81548173ffffffffffffffffffffffffffffffffffffffff021916908373ffffffffffffffffffffffffffffffffffffffff16021790555060018160040160156101000a81548160ff0219169083151502179055507f27b92c6c7afad1170d67a0beaa899639c14901a7fef1edd03cfb73dd43a39b7b848260040160009054906101000a900473ffffffffffffffffffffffffffffffffffffffff168360030154604051611db7939291906142c8565b60405180910390a15b50505050565b600654811115611e0b576040517f08c379a0000000000000000000000000000000000000000000000000000000008152600401611e029061434b565b60405180910390fd5b600760008281526020019081526020016000206005016000815480929190611e3290613dd3565b91905055507fe62504cda3862358900c5e2e0daa100f0c037d8223d9f7db7fda9f0a845e14368133604051611e6892919061451a565b60405180910390a150565b6060611e7e8261229a565b506000611e89612b19565b90506000815111611ea95760405180602001604052806000815250611ed4565b80611eb384612b30565b604051602001611ec492919061457f565b6040516020818303038152906040525b915050919050565b60086020528160005260406000208181548110611ef857600080fd5b906000526020600020016000915091509054906101000a900473ffffffffffffffffffffffffffffffffffffffff1681565b6000600560008473ffffffffffffffffffffffffffffffffffffffff1673ffffffffffffffffffffffffffffffffffffffff16815260200190815260200160002060008373ffffffffffffffffffffffffffffffffffffffff1673ffffffffffffffffffffffffffffffffffffffff16815260200190815260200160002060009054906101000a900460ff16905092915050565b806007600082815260200190815260200160002060040160159054906101000a900460ff1615612023576040517f08c379a000000000000000000000000000000000000000000000000000000000815260040161201a90614115565b60405180910390fd5b816007600082815260200190815260200160002060040160149054906101000a900460ff1615612088576040517f08c379a000000000000000000000000000000000000000000000000000000000815260040161207f9061448e565b60405180910390fd5b60006007600085815260200190815260200160002090508060040160149054906101000a900460ff16156120f1576040517f08c379a00000000000000000000000000000000000000000000000000000000081526004016120e890614615565b60405180910390fd5b8060020160009054906101000a900473ffffffffffffffffffffffffffffffffffffffff1673ffffffffffffffffffffffffffffffffffffffff166108fc349081150290604051600060405180830381858888f1935050505015801561215b573d6000803e3d6000fd5b5061218f8160020160009054906101000a900473ffffffffffffffffffffffffffffffffffffffff163383600001546129ac565b338160020160006101000a81548173ffffffffffffffffffffffffffffffffffffffff021916908373ffffffffffffffffffffffffffffffffffffffff16021790555060018160040160156101000a81548160ff0219169083151502179055507f27b92c6c7afad1170d67a0beaa899639c14901a7fef1edd03cfb73dd43a39b7b843334604051612222939291906142c8565b60405180910390a150505050565b60007f01ffc9a7000000000000000000000000000000000000000000000000000000007bffffffffffffffffffffffffffffffffffffffffffffffffffffffff1916827bffffffffffffffffffffffffffffffffffffffffffffffffffffffff1916149050919050565b6000806122a683612bfe565b9050600073ffffffffffffffffffffffffffffffffffffffff168173ffffffffffffffffffffffffffffffffffffffff160361231957826040517f7e27328900000000000000000000000000000000000000000000000000000000815260040161231091906139eb565b60405180910390fd5b80915050919050565b60006004600083815260200190815260200160002060009054906101000a900473ffffffffffffffffffffffffffffffffffffffff169050919050565b600033905090565b6123748383836001612c3b565b505050565b60008061238584612bfe565b9050600073ffffffffffffffffffffffffffffffffffffffff168373ffffffffffffffffffffffffffffffffffffffff16146123c7576123c6818486612e00565b5b600073ffffffffffffffffffffffffffffffffffffffff168173ffffffffffffffffffffffffffffffffffffffff161461245857612409600085600080612c3b565b6001600360008373ffffffffffffffffffffffffffffffffffffffff1673ffffffffffffffffffffffffffffffffffffffff168152602001908152602001600020600082825403925050819055505b600073ffffffffffffffffffffffffffffffffffffffff168573ffffffffffffffffffffffffffffffffffffffff16146124db576001600360008773ffffffffffffffffffffffffffffffffffffffff1673ffffffffffffffffffffffffffffffffffffffff168152602001908152602001600020600082825401925050819055505b846002600086815260200190815260200160002060006101000a81548173ffffffffffffffffffffffffffffffffffffffff021916908373ffffffffffffffffffffffffffffffffffffffff160217905550838573ffffffffffffffffffffffffffffffffffffffff168273ffffffffffffffffffffffffffffffffffffffff167fddf252ad1be2c89b69c2b068fc378daa952ba7f163c4a11628f55a4df523b3ef60405160405180910390a4809150509392505050565b600073ffffffffffffffffffffffffffffffffffffffff168273ffffffffffffffffffffffffffffffffffffffff16036126055760006040517f64a0ae920000000000000000000000000000000000000000000000000000000081526004016125fc9190613387565b60405180910390fd5b600061261383836000612379565b9050600073ffffffffffffffffffffffffffffffffffffffff168173ffffffffffffffffffffffffffffffffffffffff16146126875760006040517f73c6ac6e00000000000000000000000000000000000000000000000000000000815260040161267e9190613387565b60405180910390fd5b505050565b600073ffffffffffffffffffffffffffffffffffffffff168273ffffffffffffffffffffffffffffffffffffffff16036126fd57816040517f5b08ba180000000000000000000000000000000000000000000000000000000081526004016126f49190613387565b60405180910390fd5b80600560008573ffffffffffffffffffffffffffffffffffffffff1673ffffffffffffffffffffffffffffffffffffffff16815260200190815260200160002060008473ffffffffffffffffffffffffffffffffffffffff1673ffffffffffffffffffffffffffffffffffffffff16815260200190815260200160002060006101000a81548160ff0219169083151502179055508173ffffffffffffffffffffffffffffffffffffffff168373ffffffffffffffffffffffffffffffffffffffff167f17307eab39ab6107e8899845ad3d59bd9653f200f220920489ca2b5937696c31836040516127ee9190613216565b60405180910390a3505050565b60008373ffffffffffffffffffffffffffffffffffffffff163b11156129a5578273ffffffffffffffffffffffffffffffffffffffff1663150b7a02868685856040518563ffffffff1660e01b815260040161285a949392919061468a565b6020604051808303816000875af192505050801561289657506040513d601f19601f8201168201806040525081019061289391906146eb565b60015b61291a573d80600081146128c6576040519150601f19603f3d011682016040523d82523d6000602084013e6128cb565b606091505b50600081510361291257836040517f64a0ae920000000000000000000000000000000000000000000000000000000081526004016129099190613387565b60405180910390fd5b805181602001fd5b63150b7a0260e01b7bffffffffffffffffffffffffffffffffffffffffffffffffffffffff1916817bffffffffffffffffffffffffffffffffffffffffffffffffffffffff1916146129a357836040517f64a0ae9200000000000000000000000000000000000000000000000000000000815260040161299a9190613387565b60405180910390fd5b505b5050505050565b600073ffffffffffffffffffffffffffffffffffffffff168273ffffffffffffffffffffffffffffffffffffffff1603612a1e5760006040517f64a0ae92000000000000000000000000000000000000000000000000000000008152600401612a159190613387565b60405180910390fd5b6000612a2c83836000612379565b9050600073ffffffffffffffffffffffffffffffffffffffff168173ffffffffffffffffffffffffffffffffffffffff1603612a9f57816040517f7e273289000000000000000000000000000000000000000000000000000000008152600401612a9691906139eb565b60405180910390fd5b8373ffffffffffffffffffffffffffffffffffffffff168173ffffffffffffffffffffffffffffffffffffffff1614612b13578382826040517f64283d7b000000000000000000000000000000000000000000000000000000008152600401612b0a93929190613d0a565b60405180910390fd5b50505050565b606060405180602001604052806000815250905090565b606060006001612b3f84612ec4565b01905060008167ffffffffffffffff811115612b5e57612b5d6136d6565b5b6040519080825280601f01601f191660200182016040528015612b905781602001600182028036833780820191505090505b509050600082602001820190505b600115612bf3578080600190039150507f3031323334353637383961626364656600000000000000000000000000000000600a86061a8153600a8581612be757612be6614718565b5b04945060008503612b9e575b819350505050919050565b60006002600083815260200190815260200160002060009054906101000a900473ffffffffffffffffffffffffffffffffffffffff169050919050565b8080612c745750600073ffffffffffffffffffffffffffffffffffffffff168273ffffffffffffffffffffffffffffffffffffffff1614155b15612da8576000612c848461229a565b9050600073ffffffffffffffffffffffffffffffffffffffff168373ffffffffffffffffffffffffffffffffffffffff1614158015612cef57508273ffffffffffffffffffffffffffffffffffffffff168173ffffffffffffffffffffffffffffffffffffffff1614155b8015612d025750612d008184611f2a565b155b15612d4457826040517fa9fbf51f000000000000000000000000000000000000000000000000000000008152600401612d3b9190613387565b60405180910390fd5b8115612da657838573ffffffffffffffffffffffffffffffffffffffff168273ffffffffffffffffffffffffffffffffffffffff167f8c5be1e5ebec7d5bd14f71427d1e84f3dd0314c0f7b2291e5b200ac8c7c3b92560405160405180910390a45b505b836004600085815260200190815260200160002060006101000a81548173ffffffffffffffffffffffffffffffffffffffff021916908373ffffffffffffffffffffffffffffffffffffffff16021790555050505050565b612e0b838383613017565b612ebf57600073ffffffffffffffffffffffffffffffffffffffff168373ffffffffffffffffffffffffffffffffffffffff1603612e8057806040517f7e273289000000000000000000000000000000000000000000000000000000008152600401612e7791906139eb565b60405180910390fd5b81816040517f177e802f000000000000000000000000000000000000000000000000000000008152600401612eb6929190614747565b60405180910390fd5b505050565b600080600090507a184f03e93ff9f4daa797ed6e38ed64bf6a1f0100000000000000008310612f22577a184f03e93ff9f4daa797ed6e38ed64bf6a1f0100000000000000008381612f1857612f17614718565b5b0492506040810190505b6d04ee2d6d415b85acef81000000008310612f5f576d04ee2d6d415b85acef81000000008381612f5557612f54614718565b5b0492506020810190505b662386f26fc100008310612f8e57662386f26fc100008381612f8457612f83614718565b5b0492506010810190505b6305f5e1008310612fb7576305f5e1008381612fad57612fac614718565b5b0492506008810190505b6127108310612fdc576127108381612fd257612fd1614718565b5b0492506004810190505b60648310612fff5760648381612ff557612ff4614718565b5b0492506002810190505b600a831061300e576001810190505b80915050919050565b60008073ffffffffffffffffffffffffffffffffffffffff168373ffffffffffffffffffffffffffffffffffffffff16141580156130cf57508273ffffffffffffffffffffffffffffffffffffffff168473ffffffffffffffffffffffffffffffffffffffff161480613090575061308f8484611f2a565b5b806130ce57508273ffffffffffffffffffffffffffffffffffffffff166130b683612322565b73ffffffffffffffffffffffffffffffffffffffff16145b5b90509392505050565b6040518061016001604052806000815260200160608152602001600073ffffffffffffffffffffffffffffffffffffffff16815260200160008152602001600073ffffffffffffffffffffffffffffffffffffffff168152602001600015158152602001600015158152602001600081526020016000815260200160008152602001600081525090565b6000604051905090565b600080fd5b600080fd5b60007fffffffff0000000000000000000000000000000000000000000000000000000082169050919050565b6131ab81613176565b81146131b657600080fd5b50565b6000813590506131c8816131a2565b92915050565b6000602082840312156131e4576131e361316c565b5b60006131f2848285016131b9565b91505092915050565b60008115159050919050565b613210816131fb565b82525050565b600060208201905061322b6000830184613207565b92915050565b600081519050919050565b600082825260208201905092915050565b60005b8381101561326b578082015181840152602081019050613250565b60008484015250505050565b6000601f19601f8301169050919050565b600061329382613231565b61329d818561323c565b93506132ad81856020860161324d565b6132b681613277565b840191505092915050565b600060208201905081810360008301526132db8184613288565b905092915050565b6000819050919050565b6132f6816132e3565b811461330157600080fd5b50565b600081359050613313816132ed565b92915050565b60006020828403121561332f5761332e61316c565b5b600061333d84828501613304565b91505092915050565b600073ffffffffffffffffffffffffffffffffffffffff82169050919050565b600061337182613346565b9050919050565b61338181613366565b82525050565b600060208201905061339c6000830184613378565b92915050565b6133ab81613366565b81146133b657600080fd5b50565b6000813590506133c8816133a2565b92915050565b600080604083850312156133e5576133e461316c565b5b60006133f3858286016133b9565b925050602061340485828601613304565b9150509250929050565b6000806000606084860312156134275761342661316c565b5b6000613435868287016133b9565b9350506020613446868287016133b9565b925050604061345786828701613304565b9150509250925092565b600081519050919050565b600082825260208201905092915050565b6000819050602082019050919050565b613496816132e3565b82525050565b600082825260208201905092915050565b60006134b882613231565b6134c2818561349c565b93506134d281856020860161324d565b6134db81613277565b840191505092915050565b60006134f182613346565b9050919050565b613501816134e6565b82525050565b61351081613366565b82525050565b61351f816131fb565b82525050565b60006101608301600083015161353e600086018261348d565b506020830151848203602086015261355682826134ad565b915050604083015161356b60408601826134f8565b50606083015161357e606086018261348d565b5060808301516135916080860182613507565b5060a08301516135a460a0860182613516565b5060c08301516135b760c0860182613516565b5060e08301516135ca60e086018261348d565b506101008301516135df61010086018261348d565b506101208301516135f461012086018261348d565b5061014083015161360961014086018261348d565b508091505092915050565b60006136208383613525565b905092915050565b6000602082019050919050565b600061364082613461565b61364a818561346c565b93508360208202850161365c8561347d565b8060005b8581101561369857848403895281516136798582613614565b945061368483613628565b925060208a01995050600181019050613660565b50829750879550505050505092915050565b600060208201905081810360008301526136c48184613635565b905092915050565b600080fd5b600080fd5b7f4e487b7100000000000000000000000000000000000000000000000000000000600052604160045260246000fd5b61370e82613277565b810181811067ffffffffffffffff8211171561372d5761372c6136d6565b5b80604052505050565b6000613740613162565b905061374c8282613705565b919050565b600067ffffffffffffffff82111561376c5761376b6136d6565b5b61377582613277565b9050602081019050919050565b82818337600083830152505050565b60006137a461379f84613751565b613736565b9050828152602081018484840111156137c0576137bf6136d1565b5b6137cb848285613782565b509392505050565b600082601f8301126137e8576137e76136cc565b5b81356137f8848260208601613791565b91505092915050565b6000602082840312156138175761381661316c565b5b600082013567ffffffffffffffff81111561383557613834613171565b5b613841848285016137d3565b91505092915050565b613853816132e3565b82525050565b613862816134e6565b82525050565b60006101608201905061387e600083018e61384a565b8181036020830152613890818d613288565b905061389f604083018c613859565b6138ac606083018b61384a565b6138b9608083018a613378565b6138c660a0830189613207565b6138d360c0830188613207565b6138e060e083018761384a565b6138ee61010083018661384a565b6138fc61012083018561384a565b61390a61014083018461384a565b9c9b505050505050505050505050565b600081519050919050565b600082825260208201905092915050565b6000819050602082019050919050565b60006139528383613507565b60208301905092915050565b6000602082019050919050565b60006139768261391a565b6139808185613925565b935061398b83613936565b8060005b838110156139bc5781516139a38882613946565b97506139ae8361395e565b92505060018101905061398f565b5085935050505092915050565b600060208201905081810360008301526139e3818461396b565b905092915050565b6000602082019050613a00600083018461384a565b92915050565b600060208284031215613a1c57613a1b61316c565b5b6000613a2a848285016133b9565b91505092915050565b613a3c816131fb565b8114613a4757600080fd5b50565b600081359050613a5981613a33565b92915050565b60008060408385031215613a7657613a7561316c565b5b6000613a84858286016133b9565b9250506020613a9585828601613a4a565b9150509250929050565b60008060008060808587031215613ab957613ab861316c565b5b6000613ac787828801613304565b9450506020613ad887828801613304565b9350506040613ae987828801613304565b9250506060613afa87828801613304565b91505092959194509250565b600067ffffffffffffffff821115613b2157613b206136d6565b5b613b2a82613277565b9050602081019050919050565b6000613b4a613b4584613b06565b613736565b905082815260208101848484011115613b6657613b656136d1565b5b613b71848285613782565b509392505050565b600082601f830112613b8e57613b8d6136cc565b5b8135613b9e848260208601613b37565b91505092915050565b60008060008060808587031215613bc157613bc061316c565b5b6000613bcf878288016133b9565b9450506020613be0878288016133b9565b9350506040613bf187828801613304565b925050606085013567ffffffffffffffff811115613c1257613c11613171565b5b613c1e87828801613b79565b91505092959194509250565b60008060408385031215613c4157613c4061316c565b5b6000613c4f85828601613304565b9250506020613c6085828601613304565b9150509250929050565b60008060408385031215613c8157613c8061316c565b5b6000613c8f858286016133b9565b9250506020613ca0858286016133b9565b9150509250929050565b7f4e487b7100000000000000000000000000000000000000000000000000000000600052602260045260246000fd5b60006002820490506001821680613cf157607f821691505b602082108103613d0457613d03613caa565b5b50919050565b6000606082019050613d1f6000830186613378565b613d2c602083018561384a565b613d396040830184613378565b949350505050565b7f4e487b7100000000000000000000000000000000000000000000000000000000600052601160045260246000fd5b6000613d7b826132e3565b9150613d86836132e3565b9250828203905081811115613d9e57613d9d613d41565b5b92915050565b7f4e487b7100000000000000000000000000000000000000000000000000000000600052603260045260246000fd5b6000613dde826132e3565b91507fffffffffffffffffffffffffffffffffffffffffffffffffffffffffffffffff8203613e1057613e0f613d41565b5b600182019050919050565b60008190508160005260206000209050919050565b60006020601f8301049050919050565b600082821b905092915050565b600060088302613e7d7fffffffffffffffffffffffffffffffffffffffffffffffffffffffffffffffff82613e40565b613e878683613e40565b95508019841693508086168417925050509392505050565b6000819050919050565b6000613ec4613ebf613eba846132e3565b613e9f565b6132e3565b9050919050565b6000819050919050565b613ede83613ea9565b613ef2613eea82613ecb565b848454613e4d565b825550505050565b600090565b613f07613efa565b613f12818484613ed5565b505050565b5b81811015613f3657613f2b600082613eff565b600181019050613f18565b5050565b601f821115613f7b57613f4c81613e1b565b613f5584613e30565b81016020851015613f64578190505b613f78613f7085613e30565b830182613f17565b50505b505050565b600082821c905092915050565b6000613f9e60001984600802613f80565b1980831691505092915050565b6000613fb78383613f8d565b9150826002028217905092915050565b613fd082613231565b67ffffffffffffffff811115613fe957613fe86136d6565b5b613ff38254613cd9565b613ffe828285613f3a565b600060209050601f831160018114614031576000841561401f578287015190505b6140298582613fab565b865550614091565b601f19841661403f86613e1b565b60005b8281101561406757848901518255600182019150602085019450602081019050614042565b868310156140845784890151614080601f891682613f8d565b8355505b6001600288020188555050505b505050505050565b60006040820190506140ae600083018561384a565b81810360208301526140c08184613288565b90509392505050565b7f41727420697320616c726561647920736f6c642e000000000000000000000000600082015250565b60006140ff60148361323c565b915061410a826140c9565b602082019050919050565b6000602082019050818103600083015261412e816140f2565b9050919050565b7f4f6e6c7920746865206f776e65722063616e20746f67676c652074686520617560008201527f6374696f6e2e0000000000000000000000000000000000000000000000000000602082015250565b600061419160268361323c565b915061419c82614135565b604082019050919050565b600060208201905081810360008301526141c081614184565b9050919050565b60006040820190506141dc600083018561384a565b6141e96020830184613207565b9392505050565b7f41756374696f6e206973206e6f74206163746976652e00000000000000000000600082015250565b600061422660168361323c565b9150614231826141f0565b602082019050919050565b6000602082019050818103600083015261425581614219565b9050919050565b7f42696420697320746f6f206c6f772e0000000000000000000000000000000000600082015250565b6000614292600f8361323c565b915061429d8261425c565b602082019050919050565b600060208201905081810360008301526142c181614285565b9050919050565b60006060820190506142dd600083018661384a565b6142ea6020830185613378565b6142f7604083018461384a565b949350505050565b7f41727420646f6573206e6f742065786973742e00000000000000000000000000600082015250565b600061433560138361323c565b9150614340826142ff565b602082019050919050565b6000602082019050818103600083015261436481614328565b9050919050565b7f4f6e6c7920746865206f776e65722063616e207570646174652074686520636f60008201527f6f7264696e617465732e00000000000000000000000000000000000000000000602082015250565b60006143c7602a8361323c565b91506143d28261436b565b604082019050919050565b600060208201905081810360008301526143f6816143ba565b9050919050565b6000608082019050614412600083018761384a565b61441f602083018661384a565b61442c604083018561384a565b614439606083018461384a565b95945050505050565b7f41756374696f6e206973207374696c6c206163746976652e0000000000000000600082015250565b600061447860188361323c565b915061448382614442565b602082019050919050565b600060208201905081810360008301526144a78161446b565b9050919050565b7f41756374696f6e207374696c6c206163746976652e0000000000000000000000600082015250565b60006144e460158361323c565b91506144ef826144ae565b602082019050919050565b60006020820190508181036000830152614513816144d7565b9050919050565b600060408201905061452f600083018561384a565b61453c6020830184613378565b9392505050565b600081905092915050565b600061455982613231565b6145638185614543565b935061457381856020860161324d565b80840191505092915050565b600061458b828561454e565b9150614597828461454e565b91508190509392505050565b7f43616e27742062757920617274207768696c652061756374696f6e206973206160008201527f63746976652e0000000000000000000000000000000000000000000000000000602082015250565b60006145ff60268361323c565b915061460a826145a3565b604082019050919050565b6000602082019050818103600083015261462e816145f2565b9050919050565b600081519050919050565b600082825260208201905092915050565b600061465c82614635565b6146668185614640565b935061467681856020860161324d565b61467f81613277565b840191505092915050565b600060808201905061469f6000830187613378565b6146ac6020830186613378565b6146b9604083018561384a565b81810360608301526146cb8184614651565b905095945050505050565b6000815190506146e5816131a2565b92915050565b6000602082840312156147015761470061316c565b5b600061470f848285016146d6565b91505092915050565b7f4e487b7100000000000000000000000000000000000000000000000000000000600052601260045260246000fd5b600060408201905061475c6000830185613378565b614769602083018461384a565b939250505056fea264697066735822122035116d4b222cc9466be24eab9cb57a2f4bce391e0ef9d6f83f52fa85ef8018d064736f6c63430008140033",
  "linkReferences": {},
  "deployedLinkReferences": {}
}