{
  "_format": "hh-sol-artifact-1",
  "contractName": "ArtGallery",
  "sourceName": "contracts/ArtGallery.sol",
  "abi": [
    {
      "inputs": [],
      "stateMutability": "nonpayable",
      "type": "constructor"
    },
    {
      "inputs": [
        {
          "internalType": "address",
          "name": "sender",
          "type": "address"
        },
        {
          "internalType": "uint256",
          "name": "tokenId",
          "type": "uint256"
        },
        {
          "internalType": "address",
          "name": "owner",
          "type": "address"
        }
      ],
      "name": "ERC721IncorrectOwner",
      "type": "error"
    },
    {
      "inputs": [
        {
          "internalType": "address",
          "name": "operator",
          "type": "address"
        },
        {
          "internalType": "uint256",
          "name": "tokenId",
          "type": "uint256"
        }
      ],
      "name": "ERC721InsufficientApproval",
      "type": "error"
    },
    {
      "inputs": [
        {
          "internalType": "address",
          "name": "approver",
          "type": "address"
        }
      ],
      "name": "ERC721InvalidApprover",
      "type": "error"
    },
    {
      "inputs": [
        {
          "internalType": "address",
          "name": "operator",
          "type": "address"
        }
      ],
      "name": "ERC721InvalidOperator",
      "type": "error"
    },
    {
      "inputs": [
        {
          "internalType": "address",
          "name": "owner",
          "type": "address"
        }
      ],
      "name": "ERC721InvalidOwner",
      "type": "error"
    },
    {
      "inputs": [
        {
          "internalType": "address",
          "name": "receiver",
          "type": "address"
        }
      ],
      "name": "ERC721InvalidReceiver",
      "type": "error"
    },
    {
      "inputs": [
        {
          "internalType": "address",
          "name": "sender",
          "type": "address"
        }
      ],
      "name": "ERC721InvalidSender",
      "type": "error"
    },
    {
      "inputs": [
        {
          "internalType": "uint256",
          "name": "tokenId",
          "type": "uint256"
        }
      ],
      "name": "ERC721NonexistentToken",
      "type": "error"
    },
    {
      "anonymous": false,
      "inputs": [
        {
          "indexed": true,
          "internalType": "address",
          "name": "owner",
          "type": "address"
        },
        {
          "indexed": true,
          "internalType": "address",
          "name": "approved",
          "type": "address"
        },
        {
          "indexed": true,
          "internalType": "uint256",
          "name": "tokenId",
          "type": "uint256"
        }
      ],
      "name": "Approval",
      "type": "event"
    },
    {
      "anonymous": false,
      "inputs": [
        {
          "indexed": true,
          "internalType": "address",
          "name": "owner",
          "type": "address"
        },
        {
          "indexed": true,
          "internalType": "address",
          "name": "operator",
          "type": "address"
        },
        {
          "indexed": false,
          "internalType": "bool",
          "name": "approved",
          "type": "bool"
        }
      ],
      "name": "ApprovalForAll",
      "type": "event"
    },
    {
      "anonymous": false,
      "inputs": [
        {
          "indexed": false,
          "internalType": "uint256",
          "name": "id",
          "type": "uint256"
        },
        {
          "indexed": false,
          "internalType": "address",
          "name": "liker",
          "type": "address"
        }
      ],
      "name": "ArtLiked",
      "type": "event"
    },
    {
      "anonymous": false,
      "inputs": [
        {
          "indexed": false,
          "internalType": "uint256",
          "name": "id",
          "type": "uint256"
        },
        {
          "indexed": false,
          "internalType": "address",
          "name": "buyer",
          "type": "address"
        },
        {
          "indexed": false,
          "internalType": "uint256",
          "name": "price",
          "type": "uint256"
        }
      ],
      "name": "ArtSold",
      "type": "event"
    },
    {
      "anonymous": false,
      "inputs": [
        {
          "indexed": false,
          "internalType": "uint256",
          "name": "id",
          "type": "uint256"
        },
        {
          "indexed": false,
          "internalType": "string",
          "name": "title",
          "type": "string"
        },
        {
          "indexed": false,
          "internalType": "string",
          "name": "creator",
          "type": "string"
        },
        {
          "indexed": false,
          "internalType": "uint256",
          "name": "price",
          "type": "uint256"
        },
        {
          "indexed": false,
          "internalType": "enum ArtGallery.ArtType",
          "name": "artType",
          "type": "uint8"
        }
      ],
      "name": "ArtUploaded",
      "type": "event"
    },
    {
      "anonymous": false,
      "inputs": [
        {
          "indexed": false,
          "internalType": "uint256",
          "name": "id",
          "type": "uint256"
        },
        {
          "indexed": false,
          "internalType": "bool",
          "name": "isActive",
          "type": "bool"
        }
      ],
      "name": "AuctionToggled",
      "type": "event"
    },
    {
      "anonymous": false,
      "inputs": [
        {
          "indexed": false,
          "internalType": "uint256",
          "name": "id",
          "type": "uint256"
        },
        {
          "indexed": false,
          "internalType": "address",
          "name": "bidder",
          "type": "address"
        },
        {
          "indexed": false,
          "internalType": "uint256",
          "name": "bidAmount",
          "type": "uint256"
        }
      ],
      "name": "BidPlaced",
      "type": "event"
    },
    {
      "anonymous": false,
      "inputs": [
        {
          "indexed": true,
          "internalType": "address",
          "name": "from",
          "type": "address"
        },
        {
          "indexed": true,
          "internalType": "address",
          "name": "to",
          "type": "address"
        },
        {
          "indexed": true,
          "internalType": "uint256",
          "name": "tokenId",
          "type": "uint256"
        }
      ],
      "name": "Transfer",
      "type": "event"
    },
    {
      "inputs": [
        {
          "internalType": "address",
          "name": "to",
          "type": "address"
        },
        {
          "internalType": "uint256",
          "name": "tokenId",
          "type": "uint256"
        }
      ],
      "name": "approve",
      "outputs": [],
      "stateMutability": "nonpayable",
      "type": "function"
    },
    {
      "inputs": [
        {
          "internalType": "uint256",
          "name": "",
          "type": "uint256"
        }
      ],
      "name": "artPieces",
      "outputs": [
        {
          "internalType": "uint256",
          "name": "id",
          "type": "uint256"
        },
        {
          "internalType": "string",
          "name": "title",
          "type": "string"
        },
        {
          "internalType": "string",
          "name": "creator",
          "type": "string"
        },
        {
          "internalType": "string",
          "name": "uri",
          "type": "string"
        },
        {
          "internalType": "uint256",
          "name": "price",
          "type": "uint256"
        },
        {
          "internalType": "bool",
          "name": "auctionActive",
          "type": "bool"
        },
        {
          "internalType": "address payable",
          "name": "owner",
          "type": "address"
        },
        {
          "internalType": "uint256",
          "name": "maxBid",
          "type": "uint256"
        },
        {
          "internalType": "address",
          "name": "maxBidder",
          "type": "address"
        },
        {
          "internalType": "bool",
          "name": "sold",
          "type": "bool"
        },
        {
          "internalType": "uint256",
          "name": "likes",
          "type": "uint256"
        },
        {
          "internalType": "enum ArtGallery.ArtType",
          "name": "artType",
          "type": "uint8"
        }
      ],
      "stateMutability": "view",
      "type": "function"
    },
    {
      "inputs": [
        {
          "internalType": "address",
          "name": "owner",
          "type": "address"
        }
      ],
      "name": "balanceOf",
      "outputs": [
        {
          "internalType": "uint256",
          "name": "",
          "type": "uint256"
        }
      ],
      "stateMutability": "view",
      "type": "function"
    },
    {
      "inputs": [
        {
          "internalType": "uint256",
          "name": "tokenId",
          "type": "uint256"
        }
      ],
      "name": "burn",
      "outputs": [],
      "stateMutability": "nonpayable",
      "type": "function"
    },
    {
      "inputs": [
        {
          "internalType": "uint256",
          "name": "_id",
          "type": "uint256"
        }
      ],
      "name": "buyArt",
      "outputs": [],
      "stateMutability": "payable",
      "type": "function"
    },
    {
      "inputs": [
        {
          "internalType": "uint256",
          "name": "_id",
          "type": "uint256"
        }
      ],
      "name": "endAuction",
      "outputs": [],
      "stateMutability": "nonpayable",
      "type": "function"
    },
    {
      "inputs": [],
      "name": "getAllPosts",
      "outputs": [
        {
          "components": [
            {
              "internalType": "uint256",
              "name": "id",
              "type": "uint256"
            },
            {
              "internalType": "string",
              "name": "title",
              "type": "string"
            },
            {
              "internalType": "string",
              "name": "creator",
              "type": "string"
            },
            {
              "internalType": "string",
              "name": "uri",
              "type": "string"
            },
            {
              "internalType": "uint256",
              "name": "price",
              "type": "uint256"
            },
            {
              "internalType": "bool",
              "name": "auctionActive",
              "type": "bool"
            },
            {
              "internalType": "address payable",
              "name": "owner",
              "type": "address"
            },
            {
              "internalType": "uint256",
              "name": "maxBid",
              "type": "uint256"
            },
            {
              "internalType": "address",
              "name": "maxBidder",
              "type": "address"
            },
            {
              "internalType": "bool",
              "name": "sold",
              "type": "bool"
            },
            {
              "internalType": "address[]",
              "name": "bidders",
              "type": "address[]"
            },
            {
              "internalType": "uint256",
              "name": "likes",
              "type": "uint256"
            },
            {
              "internalType": "enum ArtGallery.ArtType",
              "name": "artType",
              "type": "uint8"
            }
          ],
          "internalType": "struct ArtGallery.ArtPiece[]",
          "name": "",
          "type": "tuple[]"
        }
      ],
      "stateMutability": "view",
      "type": "function"
    },
    {
      "inputs": [
        {
          "internalType": "uint256",
          "name": "tokenId",
          "type": "uint256"
        }
      ],
      "name": "getApproved",
      "outputs": [
        {
          "internalType": "address",
          "name": "",
          "type": "address"
        }
      ],
      "stateMutability": "view",
      "type": "function"
    },
    {
      "inputs": [
        {
          "internalType": "uint256",
          "name": "_id",
          "type": "uint256"
        }
      ],
      "name": "getBidders",
      "outputs": [
        {
          "internalType": "address[]",
          "name": "",
          "type": "address[]"
        }
      ],
      "stateMutability": "view",
      "type": "function"
    },
    {
      "inputs": [
        {
          "internalType": "uint256",
          "name": "_id",
          "type": "uint256"
        }
      ],
      "name": "getMaxBid",
      "outputs": [
        {
          "internalType": "uint256",
          "name": "",
          "type": "uint256"
        }
      ],
      "stateMutability": "view",
      "type": "function"
    },
    {
      "inputs": [
        {
          "internalType": "uint256",
          "name": "_id",
          "type": "uint256"
        }
      ],
      "name": "getPost",
      "outputs": [
        {
          "components": [
            {
              "internalType": "uint256",
              "name": "id",
              "type": "uint256"
            },
            {
              "internalType": "string",
              "name": "title",
              "type": "string"
            },
            {
              "internalType": "string",
              "name": "creator",
              "type": "string"
            },
            {
              "internalType": "string",
              "name": "uri",
              "type": "string"
            },
            {
              "internalType": "uint256",
              "name": "price",
              "type": "uint256"
            },
            {
              "internalType": "bool",
              "name": "auctionActive",
              "type": "bool"
            },
            {
              "internalType": "address",
              "name": "owner",
              "type": "address"
            },
            {
              "internalType": "uint256",
              "name": "maxBid",
              "type": "uint256"
            },
            {
              "internalType": "address",
              "name": "maxBidder",
              "type": "address"
            },
            {
              "internalType": "bool",
              "name": "sold",
              "type": "bool"
            },
            {
              "internalType": "uint256",
              "name": "likes",
              "type": "uint256"
            },
            {
              "internalType": "enum ArtGallery.ArtType",
              "name": "artType",
              "type": "uint8"
            }
          ],
          "internalType": "struct ArtGallery.ArtPieceDetails",
          "name": "",
          "type": "tuple"
        }
      ],
      "stateMutability": "view",
      "type": "function"
    },
    {
      "inputs": [
        {
          "internalType": "address",
          "name": "owner",
          "type": "address"
        },
        {
          "internalType": "address",
          "name": "operator",
          "type": "address"
        }
      ],
      "name": "isApprovedForAll",
      "outputs": [
        {
          "internalType": "bool",
          "name": "",
          "type": "bool"
        }
      ],
      "stateMutability": "view",
      "type": "function"
    },
    {
      "inputs": [
        {
          "internalType": "uint256",
          "name": "_id",
          "type": "uint256"
        }
      ],
      "name": "likeArt",
      "outputs": [],
      "stateMutability": "nonpayable",
      "type": "function"
    },
    {
      "inputs": [],
      "name": "name",
      "outputs": [
        {
          "internalType": "string",
          "name": "",
          "type": "string"
        }
      ],
      "stateMutability": "view",
      "type": "function"
    },
    {
      "inputs": [
        {
          "internalType": "uint256",
          "name": "tokenId",
          "type": "uint256"
        }
      ],
      "name": "ownerOf",
      "outputs": [
        {
          "internalType": "address",
          "name": "",
          "type": "address"
        }
      ],
      "stateMutability": "view",
      "type": "function"
    },
    {
      "inputs": [
        {
          "internalType": "uint256",
          "name": "_id",
          "type": "uint256"
        }
      ],
      "name": "placeBid",
      "outputs": [],
      "stateMutability": "payable",
      "type": "function"
    },
    {
      "inputs": [
        {
          "internalType": "address",
          "name": "from",
          "type": "address"
        },
        {
          "internalType": "address",
          "name": "to",
          "type": "address"
        },
        {
          "internalType": "uint256",
          "name": "tokenId",
          "type": "uint256"
        }
      ],
      "name": "safeTransferFrom",
      "outputs": [],
      "stateMutability": "nonpayable",
      "type": "function"
    },
    {
      "inputs": [
        {
          "internalType": "address",
          "name": "from",
          "type": "address"
        },
        {
          "internalType": "address",
          "name": "to",
          "type": "address"
        },
        {
          "internalType": "uint256",
          "name": "tokenId",
          "type": "uint256"
        },
        {
          "internalType": "bytes",
          "name": "data",
          "type": "bytes"
        }
      ],
      "name": "safeTransferFrom",
      "outputs": [],
      "stateMutability": "nonpayable",
      "type": "function"
    },
    {
      "inputs": [
        {
          "internalType": "address",
          "name": "operator",
          "type": "address"
        },
        {
          "internalType": "bool",
          "name": "approved",
          "type": "bool"
        }
      ],
      "name": "setApprovalForAll",
      "outputs": [],
      "stateMutability": "nonpayable",
      "type": "function"
    },
    {
      "inputs": [
        {
          "internalType": "bytes4",
          "name": "interfaceId",
          "type": "bytes4"
        }
      ],
      "name": "supportsInterface",
      "outputs": [
        {
          "internalType": "bool",
          "name": "",
          "type": "bool"
        }
      ],
      "stateMutability": "view",
      "type": "function"
    },
    {
      "inputs": [],
      "name": "symbol",
      "outputs": [
        {
          "internalType": "string",
          "name": "",
          "type": "string"
        }
      ],
      "stateMutability": "view",
      "type": "function"
    },
    {
      "inputs": [
        {
          "internalType": "uint256",
          "name": "_id",
          "type": "uint256"
        }
      ],
      "name": "toggleAuction",
      "outputs": [],
      "stateMutability": "nonpayable",
      "type": "function"
    },
    {
      "inputs": [
        {
          "internalType": "uint256",
          "name": "tokenId",
          "type": "uint256"
        }
      ],
      "name": "tokenURI",
      "outputs": [
        {
          "internalType": "string",
          "name": "",
          "type": "string"
        }
      ],
      "stateMutability": "view",
      "type": "function"
    },
    {
      "inputs": [],
      "name": "totalPosts",
      "outputs": [
        {
          "internalType": "uint256",
          "name": "",
          "type": "uint256"
        }
      ],
      "stateMutability": "view",
      "type": "function"
    },
    {
      "inputs": [
        {
          "internalType": "address",
          "name": "from",
          "type": "address"
        },
        {
          "internalType": "address",
          "name": "to",
          "type": "address"
        },
        {
          "internalType": "uint256",
          "name": "tokenId",
          "type": "uint256"
        }
      ],
      "name": "transferFrom",
      "outputs": [],
      "stateMutability": "nonpayable",
      "type": "function"
    },
    {
      "inputs": [
        {
          "internalType": "string",
          "name": "_title",
          "type": "string"
        },
        {
          "internalType": "string",
          "name": "_creator",
          "type": "string"
        },
        {
          "internalType": "string",
          "name": "_uri",
          "type": "string"
        },
        {
          "internalType": "uint256",
          "name": "_price",
          "type": "uint256"
        },
        {
          "internalType": "enum ArtGallery.ArtType",
          "name": "_artType",
          "type": "uint8"
        }
      ],
      "name": "uploadArt",
      "outputs": [],
      "stateMutability": "nonpayable",
      "type": "function"
    }
  ],
  "bytecode": "0x60806040523480156200001157600080fd5b506040518060400160405280600a81526020017f47616c6c657279417274000000000000000000000000000000000000000000008152506040518060400160405280600481526020017f474152540000000000000000000000000000000000000000000000000000000081525081600090816200008f919062000324565b508060019081620000a1919062000324565b5050506200040b565b600081519050919050565b7f4e487b7100000000000000000000000000000000000000000000000000000000600052604160045260246000fd5b7f4e487b7100000000000000000000000000000000000000000000000000000000600052602260045260246000fd5b600060028204905060018216806200012c57607f821691505b602082108103620001425762000141620000e4565b5b50919050565b60008190508160005260206000209050919050565b60006020601f8301049050919050565b600082821b905092915050565b600060088302620001ac7fffffffffffffffffffffffffffffffffffffffffffffffffffffffffffffffff826200016d565b620001b886836200016d565b95508019841693508086168417925050509392505050565b6000819050919050565b6000819050919050565b600062000205620001ff620001f984620001d0565b620001da565b620001d0565b9050919050565b6000819050919050565b6200022183620001e4565b6200023962000230826200020c565b8484546200017a565b825550505050565b600090565b6200025062000241565b6200025d81848462000216565b505050565b5b8181101562000285576200027960008262000246565b60018101905062000263565b5050565b601f821115620002d4576200029e8162000148565b620002a9846200015d565b81016020851015620002b9578190505b620002d1620002c8856200015d565b83018262000262565b50505b505050565b600082821c905092915050565b6000620002f960001984600802620002d9565b1980831691505092915050565b6000620003148383620002e6565b9150826002028217905092915050565b6200032f82620000aa565b67ffffffffffffffff8111156200034b576200034a620000b5565b5b62000357825462000113565b6200036482828562000289565b600060209050601f8311600181146200039c576000841562000387578287015190505b62000393858262000306565b86555062000403565b601f198416620003ac8662000148565b60005b82811015620003d657848901518255600182019150602085019450602081019050620003af565b86831015620003f65784890151620003f2601f891682620002e6565b8355505b6001600288020188555050505b505050505050565b614be3806200041b6000396000f3fe6080604052600436106101815760003560e01c80636352211e116100d1578063b88d4fde1161008a578063c87b56dd11610064578063c87b56dd146105b2578063db931071146105ef578063e985e9c514610618578063fc7a900b1461065557610181565b8063b88d4fde14610537578063b9a2de3a14610560578063c145e5301461058957610181565b80636352211e1461042257806370a082311461045f5780638e53fb411461049c57806395d89b41146104c75780639979ef45146104f2578063a22cb4651461050e57610181565b80633ce82a2f1161013e57806342966c681161011857806342966c68146103565780634fa7b5071461037f57806354b7e7e7146103bc578063617fbce9146103e557610181565b80633ce82a2f146102a857806340731c24146102f057806342842e0e1461032d57610181565b806301ffc9a71461018657806306fdde03146101c3578063081812fc146101ee578063095ea7b31461022b57806323b872dd14610254578063305611001461027d575b600080fd5b34801561019257600080fd5b506101ad60048036038101906101a89190613396565b610671565b6040516101ba91906133de565b60405180910390f35b3480156101cf57600080fd5b506101d8610753565b6040516101e59190613489565b60405180910390f35b3480156101fa57600080fd5b50610215600480360381019061021091906134e1565b6107e5565b604051610222919061354f565b60405180910390f35b34801561023757600080fd5b50610252600480360381019061024d9190613596565b610801565b005b34801561026057600080fd5b5061027b600480360381019061027691906135d6565b610817565b005b34801561028957600080fd5b50610292610919565b60405161029f91906139d7565b60405180910390f35b3480156102b457600080fd5b506102cf60048036038101906102ca91906134e1565b610d72565b6040516102e79c9b9a99989796959493929190613a26565b60405180910390f35b3480156102fc57600080fd5b50610317600480360381019061031291906134e1565b610fd1565b6040516103249190613c07565b60405180910390f35b34801561033957600080fd5b50610354600480360381019061034f91906135d6565b611300565b005b34801561036257600080fd5b5061037d600480360381019061037891906134e1565b611320565b005b34801561038b57600080fd5b506103a660048036038101906103a191906134e1565b611337565b6040516103b39190613c98565b60405180910390f35b3480156103c857600080fd5b506103e360048036038101906103de91906134e1565b6113db565b005b3480156103f157600080fd5b5061040c600480360381019061040791906134e1565b611566565b6040516104199190613cba565b60405180910390f35b34801561042e57600080fd5b50610449600480360381019061044491906134e1565b611586565b604051610456919061354f565b60405180910390f35b34801561046b57600080fd5b5061048660048036038101906104819190613cd5565b611598565b6040516104939190613cba565b60405180910390f35b3480156104a857600080fd5b506104b1611652565b6040516104be9190613cba565b60405180910390f35b3480156104d357600080fd5b506104dc611658565b6040516104e99190613489565b60405180910390f35b61050c600480360381019061050791906134e1565b6116ea565b005b34801561051a57600080fd5b5061053560048036038101906105309190613d2e565b61197f565b005b34801561054357600080fd5b5061055e60048036038101906105599190613ea3565b611995565b005b34801561056c57600080fd5b50610587600480360381019061058291906134e1565b6119b2565b005b34801561059557600080fd5b506105b060048036038101906105ab91906134e1565b611cf7565b005b3480156105be57600080fd5b506105d960048036038101906105d491906134e1565b611da4565b6040516105e69190613489565b60405180910390f35b3480156105fb57600080fd5b5061061660048036038101906106119190613fec565b611e0d565b005b34801561062457600080fd5b5061063f600480360381019061063a91906140bb565b611fde565b60405161064c91906133de565b60405180910390f35b61066f600480360381019061066a91906134e1565b612072565b005b60007f80ac58cd000000000000000000000000000000000000000000000000000000007bffffffffffffffffffffffffffffffffffffffffffffffffffffffff1916827bffffffffffffffffffffffffffffffffffffffffffffffffffffffff1916148061073c57507f5b5e139f000000000000000000000000000000000000000000000000000000007bffffffffffffffffffffffffffffffffffffffffffffffffffffffff1916827bffffffffffffffffffffffffffffffffffffffffffffffffffffffff1916145b8061074c575061074b8261232f565b5b9050919050565b6060600080546107629061412a565b80601f016020809104026020016040519081016040528092919081815260200182805461078e9061412a565b80156107db5780601f106107b0576101008083540402835291602001916107db565b820191906000526020600020905b8154815290600101906020018083116107be57829003601f168201915b5050505050905090565b60006107f082612399565b506107fa82612421565b9050919050565b610813828261080e61245e565b612466565b5050565b600073ffffffffffffffffffffffffffffffffffffffff168273ffffffffffffffffffffffffffffffffffffffff16036108895760006040517f64a0ae92000000000000000000000000000000000000000000000000000000008152600401610880919061354f565b60405180910390fd5b600061089d838361089861245e565b612478565b90508373ffffffffffffffffffffffffffffffffffffffff168173ffffffffffffffffffffffffffffffffffffffff1614610913578382826040517f64283d7b00000000000000000000000000000000000000000000000000000000815260040161090a9392919061415b565b60405180910390fd5b50505050565b6060600060065467ffffffffffffffff81111561093957610938613d78565b5b60405190808252806020026020018201604052801561097257816020015b61095f6131dd565b8152602001906001900390816109575790505b5090506000600190505b6006548111610d6a5760076000828152602001908152602001600020604051806101a0016040529081600082015481526020016001820180546109be9061412a565b80601f01602080910402602001604051908101604052809291908181526020018280546109ea9061412a565b8015610a375780601f10610a0c57610100808354040283529160200191610a37565b820191906000526020600020905b815481529060010190602001808311610a1a57829003601f168201915b50505050508152602001600282018054610a509061412a565b80601f0160208091040260200160405190810160405280929190818152602001828054610a7c9061412a565b8015610ac95780601f10610a9e57610100808354040283529160200191610ac9565b820191906000526020600020905b815481529060010190602001808311610aac57829003601f168201915b50505050508152602001600382018054610ae29061412a565b80601f0160208091040260200160405190810160405280929190818152602001828054610b0e9061412a565b8015610b5b5780601f10610b3057610100808354040283529160200191610b5b565b820191906000526020600020905b815481529060010190602001808311610b3e57829003601f168201915b50505050508152602001600482015481526020016005820160009054906101000a900460ff161515151581526020016005820160019054906101000a900473ffffffffffffffffffffffffffffffffffffffff1673ffffffffffffffffffffffffffffffffffffffff1673ffffffffffffffffffffffffffffffffffffffff168152602001600682015481526020016007820160009054906101000a900473ffffffffffffffffffffffffffffffffffffffff1673ffffffffffffffffffffffffffffffffffffffff1673ffffffffffffffffffffffffffffffffffffffff1681526020016007820160149054906101000a900460ff1615151515815260200160088201805480602002602001604051908101604052809291908181526020018280548015610cdf57602002820191906000526020600020905b8160009054906101000a900473ffffffffffffffffffffffffffffffffffffffff1673ffffffffffffffffffffffffffffffffffffffff1681526020019060010190808311610c95575b5050505050815260200160098201548152602001600a820160009054906101000a900460ff166001811115610d1757610d1661379c565b5b6001811115610d2957610d2861379c565b5b8152505082600183610d3b91906141c1565b81518110610d4c57610d4b6141f5565b5b60200260200101819052508080610d6290614224565b91505061097c565b508091505090565b6007602052806000526040600020600091509050806000015490806001018054610d9b9061412a565b80601f0160208091040260200160405190810160405280929190818152602001828054610dc79061412a565b8015610e145780601f10610de957610100808354040283529160200191610e14565b820191906000526020600020905b815481529060010190602001808311610df757829003601f168201915b505050505090806002018054610e299061412a565b80601f0160208091040260200160405190810160405280929190818152602001828054610e559061412a565b8015610ea25780601f10610e7757610100808354040283529160200191610ea2565b820191906000526020600020905b815481529060010190602001808311610e8557829003601f168201915b505050505090806003018054610eb79061412a565b80601f0160208091040260200160405190810160405280929190818152602001828054610ee39061412a565b8015610f305780601f10610f0557610100808354040283529160200191610f30565b820191906000526020600020905b815481529060010190602001808311610f1357829003601f168201915b5050505050908060040154908060050160009054906101000a900460ff16908060050160019054906101000a900473ffffffffffffffffffffffffffffffffffffffff16908060060154908060070160009054906101000a900473ffffffffffffffffffffffffffffffffffffffff16908060070160149054906101000a900460ff169080600901549080600a0160009054906101000a900460ff1690508c565b610fd9613287565b60065482111561101e576040517f08c379a0000000000000000000000000000000000000000000000000000000008152600401611015906142b8565b60405180910390fd5b60006007600084815260200190815260200160002090506040518061018001604052808260000154815260200182600101805461105a9061412a565b80601f01602080910402602001604051908101604052809291908181526020018280546110869061412a565b80156110d35780601f106110a8576101008083540402835291602001916110d3565b820191906000526020600020905b8154815290600101906020018083116110b657829003601f168201915b505050505081526020018260020180546110ec9061412a565b80601f01602080910402602001604051908101604052809291908181526020018280546111189061412a565b80156111655780601f1061113a57610100808354040283529160200191611165565b820191906000526020600020905b81548152906001019060200180831161114857829003601f168201915b5050505050815260200182600301805461117e9061412a565b80601f01602080910402602001604051908101604052809291908181526020018280546111aa9061412a565b80156111f75780601f106111cc576101008083540402835291602001916111f7565b820191906000526020600020905b8154815290600101906020018083116111da57829003601f168201915b50505050508152602001826004015481526020018260050160009054906101000a900460ff16151581526020018260050160019054906101000a900473ffffffffffffffffffffffffffffffffffffffff1673ffffffffffffffffffffffffffffffffffffffff168152602001826006015481526020018260070160009054906101000a900473ffffffffffffffffffffffffffffffffffffffff1673ffffffffffffffffffffffffffffffffffffffff1681526020018260070160149054906101000a900460ff16151581526020018260090154815260200182600a0160009054906101000a900460ff1660018111156112f5576112f461379c565b5b815250915050919050565b61131b83838360405180602001604052806000815250611995565b505050565b61133360008261132e61245e565b612478565b5050565b6060600760008381526020019081526020016000206008018054806020026020016040519081016040528092919081815260200182805480156113cf57602002820191906000526020600020905b8160009054906101000a900473ffffffffffffffffffffffffffffffffffffffff1673ffffffffffffffffffffffffffffffffffffffff1681526020019060010190808311611385575b50505050509050919050565b806007600082815260200190815260200160002060070160149054906101000a900460ff1615611440576040517f08c379a000000000000000000000000000000000000000000000000000000000815260040161143790614324565b60405180910390fd5b60006007600084815260200190815260200160002090508060050160019054906101000a900473ffffffffffffffffffffffffffffffffffffffff1673ffffffffffffffffffffffffffffffffffffffff163373ffffffffffffffffffffffffffffffffffffffff16146114e9576040517f08c379a00000000000000000000000000000000000000000000000000000000081526004016114e0906143b6565b60405180910390fd5b8060050160009054906101000a900460ff16158160050160006101000a81548160ff0219169083151502179055507fbf8ee19446f5eb969bd922f7d27434a792ccf5a3fb36c1754332919c5050df27838260050160009054906101000a900460ff166040516115599291906143d6565b60405180910390a1505050565b600060076000838152602001908152602001600020600601549050919050565b600061159182612399565b9050919050565b60008073ffffffffffffffffffffffffffffffffffffffff168273ffffffffffffffffffffffffffffffffffffffff160361160b5760006040517f89c62b64000000000000000000000000000000000000000000000000000000008152600401611602919061354f565b60405180910390fd5b600360008373ffffffffffffffffffffffffffffffffffffffff1673ffffffffffffffffffffffffffffffffffffffff168152602001908152602001600020549050919050565b60065481565b6060600180546116679061412a565b80601f01602080910402602001604051908101604052809291908181526020018280546116939061412a565b80156116e05780601f106116b5576101008083540402835291602001916116e0565b820191906000526020600020905b8154815290600101906020018083116116c357829003601f168201915b5050505050905090565b806007600082815260200190815260200160002060050160009054906101000a900460ff1661174e576040517f08c379a00000000000000000000000000000000000000000000000000000000081526004016117459061444b565b60405180910390fd5b816007600082815260200190815260200160002060070160149054906101000a900460ff16156117b3576040517f08c379a00000000000000000000000000000000000000000000000000000000081526004016117aa90614324565b60405180910390fd5b600060076000858152602001908152602001600020905080600601543411611810576040517f08c379a0000000000000000000000000000000000000000000000000000000008152600401611807906144b7565b60405180910390fd5b60008160060154111561188d578060070160009054906101000a900473ffffffffffffffffffffffffffffffffffffffff1673ffffffffffffffffffffffffffffffffffffffff166108fc82600601549081150290604051600060405180830381858888f1935050505015801561188b573d6000803e3d6000fd5b505b348160060181905550338160070160006101000a81548173ffffffffffffffffffffffffffffffffffffffff021916908373ffffffffffffffffffffffffffffffffffffffff16021790555080600801339080600181540180825580915050600190039060005260206000200160009091909190916101000a81548173ffffffffffffffffffffffffffffffffffffffff021916908373ffffffffffffffffffffffffffffffffffffffff1602179055507f0e54eff26401bf69b81b26f60bd85ef47f5d85275c1d268d84f68d6897431c47843334604051611971939291906144d7565b60405180910390a150505050565b61199161198a61245e565b8383612692565b5050565b6119a0848484610817565b6119ac84848484612801565b50505050565b806007600082815260200190815260200160002060050160009054906101000a900460ff1615611a17576040517f08c379a0000000000000000000000000000000000000000000000000000000008152600401611a0e9061455a565b60405180910390fd5b816007600082815260200190815260200160002060070160149054906101000a900460ff1615611a7c576040517f08c379a0000000000000000000000000000000000000000000000000000000008152600401611a7390614324565b60405180910390fd5b6000600760008581526020019081526020016000209050600015158160050160009054906101000a900460ff16151514611aeb576040517f08c379a0000000000000000000000000000000000000000000000000000000008152600401611ae2906145c6565b60405180910390fd5b600073ffffffffffffffffffffffffffffffffffffffff168160070160009054906101000a900473ffffffffffffffffffffffffffffffffffffffff1673ffffffffffffffffffffffffffffffffffffffff1614611cf1578060050160019054906101000a900473ffffffffffffffffffffffffffffffffffffffff1673ffffffffffffffffffffffffffffffffffffffff166108fc82600601549081150290604051600060405180830381858888f19350505050158015611bb1573d6000803e3d6000fd5b50611c098160050160019054906101000a900473ffffffffffffffffffffffffffffffffffffffff168260070160009054906101000a900473ffffffffffffffffffffffffffffffffffffffff1683600001546129b8565b8060070160009054906101000a900473ffffffffffffffffffffffffffffffffffffffff168160050160016101000a81548173ffffffffffffffffffffffffffffffffffffffff021916908373ffffffffffffffffffffffffffffffffffffffff16021790555060018160070160146101000a81548160ff0219169083151502179055507f27b92c6c7afad1170d67a0beaa899639c14901a7fef1edd03cfb73dd43a39b7b848260070160009054906101000a900473ffffffffffffffffffffffffffffffffffffffff168360060154604051611ce8939291906144d7565b60405180910390a15b50505050565b600654811115611d3c576040517f08c379a0000000000000000000000000000000000000000000000000000000008152600401611d33906142b8565b60405180910390fd5b600760008281526020019081526020016000206009016000815480929190611d6390614224565b91905055507fe62504cda3862358900c5e2e0daa100f0c037d8223d9f7db7fda9f0a845e14368133604051611d999291906145e6565b60405180910390a150565b6060611daf82612399565b506000611dba612b25565b90506000815111611dda5760405180602001604052806000815250611e05565b80611de484612b3c565b604051602001611df592919061464b565b6040516020818303038152906040525b915050919050565b60066000815480929190611e2090614224565b9190505550611e3133600654612c0a565b60006007600060065481526020019081526020016000209050600654816000018190555085816001019081611e66919061481b565b5084816002019081611e78919061481b565b5083816003019081611e8a919061481b565b5082816004018190555060008160050160006101000a81548160ff021916908315150217905550338160050160016101000a81548173ffffffffffffffffffffffffffffffffffffffff021916908373ffffffffffffffffffffffffffffffffffffffff1602179055506000816006018190555060008160070160006101000a81548173ffffffffffffffffffffffffffffffffffffffff021916908373ffffffffffffffffffffffffffffffffffffffff16021790555060008160070160146101000a81548160ff021916908315150217905550600081600901819055508181600a0160006101000a81548160ff02191690836001811115611f9057611f8f61379c565b5b02179055507f592870152201e808764c484420e77511d182b5b094c6174d343c55341e5cad9960065487878686604051611fce9594939291906148ed565b60405180910390a1505050505050565b6000600560008473ffffffffffffffffffffffffffffffffffffffff1673ffffffffffffffffffffffffffffffffffffffff16815260200190815260200160002060008373ffffffffffffffffffffffffffffffffffffffff1673ffffffffffffffffffffffffffffffffffffffff16815260200190815260200160002060009054906101000a900460ff16905092915050565b806007600082815260200190815260200160002060070160149054906101000a900460ff16156120d7576040517f08c379a00000000000000000000000000000000000000000000000000000000081526004016120ce90614324565b60405180910390fd5b816007600082815260200190815260200160002060050160009054906101000a900460ff161561213c576040517f08c379a00000000000000000000000000000000000000000000000000000000081526004016121339061455a565b60405180910390fd5b6000600760008581526020019081526020016000209050806004015434101561219a576040517f08c379a0000000000000000000000000000000000000000000000000000000008152600401612191906149c0565b60405180910390fd5b8060050160009054906101000a900460ff16156121ec576040517f08c379a00000000000000000000000000000000000000000000000000000000081526004016121e390614a52565b60405180910390fd5b8060050160019054906101000a900473ffffffffffffffffffffffffffffffffffffffff1673ffffffffffffffffffffffffffffffffffffffff166108fc349081150290604051600060405180830381858888f19350505050158015612256573d6000803e3d6000fd5b5061228a8160050160019054906101000a900473ffffffffffffffffffffffffffffffffffffffff163383600001546129b8565b338160050160016101000a81548173ffffffffffffffffffffffffffffffffffffffff021916908373ffffffffffffffffffffffffffffffffffffffff16021790555060018160070160146101000a81548160ff0219169083151502179055507f27b92c6c7afad1170d67a0beaa899639c14901a7fef1edd03cfb73dd43a39b7b84338360040154604051612321939291906144d7565b60405180910390a150505050565b60007f01ffc9a7000000000000000000000000000000000000000000000000000000007bffffffffffffffffffffffffffffffffffffffffffffffffffffffff1916827bffffffffffffffffffffffffffffffffffffffffffffffffffffffff1916149050919050565b6000806123a583612d03565b9050600073ffffffffffffffffffffffffffffffffffffffff168173ffffffffffffffffffffffffffffffffffffffff160361241857826040517f7e27328900000000000000000000000000000000000000000000000000000000815260040161240f9190613cba565b60405180910390fd5b80915050919050565b60006004600083815260200190815260200160002060009054906101000a900473ffffffffffffffffffffffffffffffffffffffff169050919050565b600033905090565b6124738383836001612d40565b505050565b60008061248484612d03565b9050600073ffffffffffffffffffffffffffffffffffffffff168373ffffffffffffffffffffffffffffffffffffffff16146124c6576124c5818486612f05565b5b600073ffffffffffffffffffffffffffffffffffffffff168173ffffffffffffffffffffffffffffffffffffffff161461255757612508600085600080612d40565b6001600360008373ffffffffffffffffffffffffffffffffffffffff1673ffffffffffffffffffffffffffffffffffffffff168152602001908152602001600020600082825403925050819055505b600073ffffffffffffffffffffffffffffffffffffffff168573ffffffffffffffffffffffffffffffffffffffff16146125da576001600360008773ffffffffffffffffffffffffffffffffffffffff1673ffffffffffffffffffffffffffffffffffffffff168152602001908152602001600020600082825401925050819055505b846002600086815260200190815260200160002060006101000a81548173ffffffffffffffffffffffffffffffffffffffff021916908373ffffffffffffffffffffffffffffffffffffffff160217905550838573ffffffffffffffffffffffffffffffffffffffff168273ffffffffffffffffffffffffffffffffffffffff167fddf252ad1be2c89b69c2b068fc378daa952ba7f163c4a11628f55a4df523b3ef60405160405180910390a4809150509392505050565b600073ffffffffffffffffffffffffffffffffffffffff168273ffffffffffffffffffffffffffffffffffffffff160361270357816040517f5b08ba180000000000000000000000000000000000000000000000000000000081526004016126fa919061354f565b60405180910390fd5b80600560008573ffffffffffffffffffffffffffffffffffffffff1673ffffffffffffffffffffffffffffffffffffffff16815260200190815260200160002060008473ffffffffffffffffffffffffffffffffffffffff1673ffffffffffffffffffffffffffffffffffffffff16815260200190815260200160002060006101000a81548160ff0219169083151502179055508173ffffffffffffffffffffffffffffffffffffffff168373ffffffffffffffffffffffffffffffffffffffff167f17307eab39ab6107e8899845ad3d59bd9653f200f220920489ca2b5937696c31836040516127f491906133de565b60405180910390a3505050565b60008373ffffffffffffffffffffffffffffffffffffffff163b11156129b2578273ffffffffffffffffffffffffffffffffffffffff1663150b7a0261284561245e565b8685856040518563ffffffff1660e01b81526004016128679493929190614ac7565b6020604051808303816000875af19250505080156128a357506040513d601f19601f820116820180604052508101906128a09190614b28565b60015b612927573d80600081146128d3576040519150601f19603f3d011682016040523d82523d6000602084013e6128d8565b606091505b50600081510361291f57836040517f64a0ae92000000000000000000000000000000000000000000000000000000008152600401612916919061354f565b60405180910390fd5b805181602001fd5b63150b7a0260e01b7bffffffffffffffffffffffffffffffffffffffffffffffffffffffff1916817bffffffffffffffffffffffffffffffffffffffffffffffffffffffff1916146129b057836040517f64a0ae920000000000000000000000000000000000000000000000000000000081526004016129a7919061354f565b60405180910390fd5b505b50505050565b600073ffffffffffffffffffffffffffffffffffffffff168273ffffffffffffffffffffffffffffffffffffffff1603612a2a5760006040517f64a0ae92000000000000000000000000000000000000000000000000000000008152600401612a21919061354f565b60405180910390fd5b6000612a3883836000612478565b9050600073ffffffffffffffffffffffffffffffffffffffff168173ffffffffffffffffffffffffffffffffffffffff1603612aab57816040517f7e273289000000000000000000000000000000000000000000000000000000008152600401612aa29190613cba565b60405180910390fd5b8373ffffffffffffffffffffffffffffffffffffffff168173ffffffffffffffffffffffffffffffffffffffff1614612b1f578382826040517f64283d7b000000000000000000000000000000000000000000000000000000008152600401612b169392919061415b565b60405180910390fd5b50505050565b606060405180602001604052806000815250905090565b606060006001612b4b84612fc9565b01905060008167ffffffffffffffff811115612b6a57612b69613d78565b5b6040519080825280601f01601f191660200182016040528015612b9c5781602001600182028036833780820191505090505b509050600082602001820190505b600115612bff578080600190039150507f3031323334353637383961626364656600000000000000000000000000000000600a86061a8153600a8581612bf357612bf2614b55565b5b04945060008503612baa575b819350505050919050565b600073ffffffffffffffffffffffffffffffffffffffff168273ffffffffffffffffffffffffffffffffffffffff1603612c7c5760006040517f64a0ae92000000000000000000000000000000000000000000000000000000008152600401612c73919061354f565b60405180910390fd5b6000612c8a83836000612478565b9050600073ffffffffffffffffffffffffffffffffffffffff168173ffffffffffffffffffffffffffffffffffffffff1614612cfe5760006040517f73c6ac6e000000000000000000000000000000000000000000000000000000008152600401612cf5919061354f565b60405180910390fd5b505050565b60006002600083815260200190815260200160002060009054906101000a900473ffffffffffffffffffffffffffffffffffffffff169050919050565b8080612d795750600073ffffffffffffffffffffffffffffffffffffffff168273ffffffffffffffffffffffffffffffffffffffff1614155b15612ead576000612d8984612399565b9050600073ffffffffffffffffffffffffffffffffffffffff168373ffffffffffffffffffffffffffffffffffffffff1614158015612df457508273ffffffffffffffffffffffffffffffffffffffff168173ffffffffffffffffffffffffffffffffffffffff1614155b8015612e075750612e058184611fde565b155b15612e4957826040517fa9fbf51f000000000000000000000000000000000000000000000000000000008152600401612e40919061354f565b60405180910390fd5b8115612eab57838573ffffffffffffffffffffffffffffffffffffffff168273ffffffffffffffffffffffffffffffffffffffff167f8c5be1e5ebec7d5bd14f71427d1e84f3dd0314c0f7b2291e5b200ac8c7c3b92560405160405180910390a45b505b836004600085815260200190815260200160002060006101000a81548173ffffffffffffffffffffffffffffffffffffffff021916908373ffffffffffffffffffffffffffffffffffffffff16021790555050505050565b612f1083838361311c565b612fc457600073ffffffffffffffffffffffffffffffffffffffff168373ffffffffffffffffffffffffffffffffffffffff1603612f8557806040517f7e273289000000000000000000000000000000000000000000000000000000008152600401612f7c9190613cba565b60405180910390fd5b81816040517f177e802f000000000000000000000000000000000000000000000000000000008152600401612fbb929190614b84565b60405180910390fd5b505050565b600080600090507a184f03e93ff9f4daa797ed6e38ed64bf6a1f0100000000000000008310613027577a184f03e93ff9f4daa797ed6e38ed64bf6a1f010000000000000000838161301d5761301c614b55565b5b0492506040810190505b6d04ee2d6d415b85acef81000000008310613064576d04ee2d6d415b85acef8100000000838161305a57613059614b55565b5b0492506020810190505b662386f26fc10000831061309357662386f26fc10000838161308957613088614b55565b5b0492506010810190505b6305f5e10083106130bc576305f5e10083816130b2576130b1614b55565b5b0492506008810190505b61271083106130e15761271083816130d7576130d6614b55565b5b0492506004810190505b6064831061310457606483816130fa576130f9614b55565b5b0492506002810190505b600a8310613113576001810190505b80915050919050565b60008073ffffffffffffffffffffffffffffffffffffffff168373ffffffffffffffffffffffffffffffffffffffff16141580156131d457508273ffffffffffffffffffffffffffffffffffffffff168473ffffffffffffffffffffffffffffffffffffffff16148061319557506131948484611fde565b5b806131d357508273ffffffffffffffffffffffffffffffffffffffff166131bb83612421565b73ffffffffffffffffffffffffffffffffffffffff16145b5b90509392505050565b604051806101a001604052806000815260200160608152602001606081526020016060815260200160008152602001600015158152602001600073ffffffffffffffffffffffffffffffffffffffff16815260200160008152602001600073ffffffffffffffffffffffffffffffffffffffff1681526020016000151581526020016060815260200160008152602001600060018111156132815761328061379c565b5b81525090565b6040518061018001604052806000815260200160608152602001606081526020016060815260200160008152602001600015158152602001600073ffffffffffffffffffffffffffffffffffffffff16815260200160008152602001600073ffffffffffffffffffffffffffffffffffffffff16815260200160001515815260200160008152602001600060018111156133245761332361379c565b5b81525090565b6000604051905090565b600080fd5b600080fd5b60007fffffffff0000000000000000000000000000000000000000000000000000000082169050919050565b6133738161333e565b811461337e57600080fd5b50565b6000813590506133908161336a565b92915050565b6000602082840312156133ac576133ab613334565b5b60006133ba84828501613381565b91505092915050565b60008115159050919050565b6133d8816133c3565b82525050565b60006020820190506133f360008301846133cf565b92915050565b600081519050919050565b600082825260208201905092915050565b60005b83811015613433578082015181840152602081019050613418565b60008484015250505050565b6000601f19601f8301169050919050565b600061345b826133f9565b6134658185613404565b9350613475818560208601613415565b61347e8161343f565b840191505092915050565b600060208201905081810360008301526134a38184613450565b905092915050565b6000819050919050565b6134be816134ab565b81146134c957600080fd5b50565b6000813590506134db816134b5565b92915050565b6000602082840312156134f7576134f6613334565b5b6000613505848285016134cc565b91505092915050565b600073ffffffffffffffffffffffffffffffffffffffff82169050919050565b60006135398261350e565b9050919050565b6135498161352e565b82525050565b60006020820190506135646000830184613540565b92915050565b6135738161352e565b811461357e57600080fd5b50565b6000813590506135908161356a565b92915050565b600080604083850312156135ad576135ac613334565b5b60006135bb85828601613581565b92505060206135cc858286016134cc565b9150509250929050565b6000806000606084860312156135ef576135ee613334565b5b60006135fd86828701613581565b935050602061360e86828701613581565b925050604061361f868287016134cc565b9150509250925092565b600081519050919050565b600082825260208201905092915050565b6000819050602082019050919050565b61365e816134ab565b82525050565b600082825260208201905092915050565b6000613680826133f9565b61368a8185613664565b935061369a818560208601613415565b6136a38161343f565b840191505092915050565b6136b7816133c3565b82525050565b60006136c88261350e565b9050919050565b6136d8816136bd565b82525050565b6136e78161352e565b82525050565b600081519050919050565b600082825260208201905092915050565b6000819050602082019050919050565b600061372583836136de565b60208301905092915050565b6000602082019050919050565b6000613749826136ed565b61375381856136f8565b935061375e83613709565b8060005b8381101561378f5781516137768882613719565b975061378183613731565b925050600181019050613762565b5085935050505092915050565b7f4e487b7100000000000000000000000000000000000000000000000000000000600052602160045260246000fd5b600281106137dc576137db61379c565b5b50565b60008190506137ed826137cb565b919050565b60006137fd826137df565b9050919050565b61380d816137f2565b82525050565b60006101a08301600083015161382c6000860182613655565b50602083015184820360208601526138448282613675565b9150506040830151848203604086015261385e8282613675565b915050606083015184820360608601526138788282613675565b915050608083015161388d6080860182613655565b5060a08301516138a060a08601826136ae565b5060c08301516138b360c08601826136cf565b5060e08301516138c660e0860182613655565b506101008301516138db6101008601826136de565b506101208301516138f06101208601826136ae565b5061014083015184820361014086015261390a828261373e565b915050610160830151613921610160860182613655565b50610180830151613936610180860182613804565b508091505092915050565b600061394d8383613813565b905092915050565b6000602082019050919050565b600061396d82613629565b6139778185613634565b93508360208202850161398985613645565b8060005b858110156139c557848403895281516139a68582613941565b94506139b183613955565b925060208a0199505060018101905061398d565b50829750879550505050505092915050565b600060208201905081810360008301526139f18184613962565b905092915050565b613a02816134ab565b82525050565b613a11816136bd565b82525050565b613a20816137f2565b82525050565b600061018082019050613a3c600083018f6139f9565b8181036020830152613a4e818e613450565b90508181036040830152613a62818d613450565b90508181036060830152613a76818c613450565b9050613a85608083018b6139f9565b613a9260a083018a6133cf565b613a9f60c0830189613a08565b613aac60e08301886139f9565b613aba610100830187613540565b613ac86101208301866133cf565b613ad66101408301856139f9565b613ae4610160830184613a17565b9d9c50505050505050505050505050565b600061018083016000830151613b0e6000860182613655565b5060208301518482036020860152613b268282613675565b91505060408301518482036040860152613b408282613675565b91505060608301518482036060860152613b5a8282613675565b9150506080830151613b6f6080860182613655565b5060a0830151613b8260a08601826136ae565b5060c0830151613b9560c08601826136de565b5060e0830151613ba860e0860182613655565b50610100830151613bbd6101008601826136de565b50610120830151613bd26101208601826136ae565b50610140830151613be7610140860182613655565b50610160830151613bfc610160860182613804565b508091505092915050565b60006020820190508181036000830152613c218184613af5565b905092915050565b600082825260208201905092915050565b6000613c45826136ed565b613c4f8185613c29565b9350613c5a83613709565b8060005b83811015613c8b578151613c728882613719565b9750613c7d83613731565b925050600181019050613c5e565b5085935050505092915050565b60006020820190508181036000830152613cb28184613c3a565b905092915050565b6000602082019050613ccf60008301846139f9565b92915050565b600060208284031215613ceb57613cea613334565b5b6000613cf984828501613581565b91505092915050565b613d0b816133c3565b8114613d1657600080fd5b50565b600081359050613d2881613d02565b92915050565b60008060408385031215613d4557613d44613334565b5b6000613d5385828601613581565b9250506020613d6485828601613d19565b9150509250929050565b600080fd5b600080fd5b7f4e487b7100000000000000000000000000000000000000000000000000000000600052604160045260246000fd5b613db08261343f565b810181811067ffffffffffffffff82111715613dcf57613dce613d78565b5b80604052505050565b6000613de261332a565b9050613dee8282613da7565b919050565b600067ffffffffffffffff821115613e0e57613e0d613d78565b5b613e178261343f565b9050602081019050919050565b82818337600083830152505050565b6000613e46613e4184613df3565b613dd8565b905082815260208101848484011115613e6257613e61613d73565b5b613e6d848285613e24565b509392505050565b600082601f830112613e8a57613e89613d6e565b5b8135613e9a848260208601613e33565b91505092915050565b60008060008060808587031215613ebd57613ebc613334565b5b6000613ecb87828801613581565b9450506020613edc87828801613581565b9350506040613eed878288016134cc565b925050606085013567ffffffffffffffff811115613f0e57613f0d613339565b5b613f1a87828801613e75565b91505092959194509250565b600067ffffffffffffffff821115613f4157613f40613d78565b5b613f4a8261343f565b9050602081019050919050565b6000613f6a613f6584613f26565b613dd8565b905082815260208101848484011115613f8657613f85613d73565b5b613f91848285613e24565b509392505050565b600082601f830112613fae57613fad613d6e565b5b8135613fbe848260208601613f57565b91505092915050565b60028110613fd457600080fd5b50565b600081359050613fe681613fc7565b92915050565b600080600080600060a0868803121561400857614007613334565b5b600086013567ffffffffffffffff81111561402657614025613339565b5b61403288828901613f99565b955050602086013567ffffffffffffffff81111561405357614052613339565b5b61405f88828901613f99565b945050604086013567ffffffffffffffff8111156140805761407f613339565b5b61408c88828901613f99565b935050606061409d888289016134cc565b92505060806140ae88828901613fd7565b9150509295509295909350565b600080604083850312156140d2576140d1613334565b5b60006140e085828601613581565b92505060206140f185828601613581565b9150509250929050565b7f4e487b7100000000000000000000000000000000000000000000000000000000600052602260045260246000fd5b6000600282049050600182168061414257607f821691505b602082108103614155576141546140fb565b5b50919050565b60006060820190506141706000830186613540565b61417d60208301856139f9565b61418a6040830184613540565b949350505050565b7f4e487b7100000000000000000000000000000000000000000000000000000000600052601160045260246000fd5b60006141cc826134ab565b91506141d7836134ab565b92508282039050818111156141ef576141ee614192565b5b92915050565b7f4e487b7100000000000000000000000000000000000000000000000000000000600052603260045260246000fd5b600061422f826134ab565b91507fffffffffffffffffffffffffffffffffffffffffffffffffffffffffffffffff820361426157614260614192565b5b600182019050919050565b7f41727420646f6573206e6f742065786973742e00000000000000000000000000600082015250565b60006142a2601383613404565b91506142ad8261426c565b602082019050919050565b600060208201905081810360008301526142d181614295565b9050919050565b7f41727420697320616c726561647920736f6c642e000000000000000000000000600082015250565b600061430e601483613404565b9150614319826142d8565b602082019050919050565b6000602082019050818103600083015261433d81614301565b9050919050565b7f4f6e6c7920746865206f776e65722063616e20746f67676c652074686520617560008201527f6374696f6e2e0000000000000000000000000000000000000000000000000000602082015250565b60006143a0602683613404565b91506143ab82614344565b604082019050919050565b600060208201905081810360008301526143cf81614393565b9050919050565b60006040820190506143eb60008301856139f9565b6143f860208301846133cf565b9392505050565b7f41756374696f6e206973206e6f74206163746976652e00000000000000000000600082015250565b6000614435601683613404565b9150614440826143ff565b602082019050919050565b6000602082019050818103600083015261446481614428565b9050919050565b7f42696420697320746f6f206c6f772e0000000000000000000000000000000000600082015250565b60006144a1600f83613404565b91506144ac8261446b565b602082019050919050565b600060208201905081810360008301526144d081614494565b9050919050565b60006060820190506144ec60008301866139f9565b6144f96020830185613540565b61450660408301846139f9565b949350505050565b7f41756374696f6e206973207374696c6c206163746976652e0000000000000000600082015250565b6000614544601883613404565b915061454f8261450e565b602082019050919050565b6000602082019050818103600083015261457381614537565b9050919050565b7f41756374696f6e207374696c6c206163746976652e0000000000000000000000600082015250565b60006145b0601583613404565b91506145bb8261457a565b602082019050919050565b600060208201905081810360008301526145df816145a3565b9050919050565b60006040820190506145fb60008301856139f9565b6146086020830184613540565b9392505050565b600081905092915050565b6000614625826133f9565b61462f818561460f565b935061463f818560208601613415565b80840191505092915050565b6000614657828561461a565b9150614663828461461a565b91508190509392505050565b60008190508160005260206000209050919050565b60006020601f8301049050919050565b600082821b905092915050565b6000600883026146d17fffffffffffffffffffffffffffffffffffffffffffffffffffffffffffffffff82614694565b6146db8683614694565b95508019841693508086168417925050509392505050565b6000819050919050565b600061471861471361470e846134ab565b6146f3565b6134ab565b9050919050565b6000819050919050565b614732836146fd565b61474661473e8261471f565b8484546146a1565b825550505050565b600090565b61475b61474e565b614766818484614729565b505050565b5b8181101561478a5761477f600082614753565b60018101905061476c565b5050565b601f8211156147cf576147a08161466f565b6147a984614684565b810160208510156147b8578190505b6147cc6147c485614684565b83018261476b565b50505b505050565b600082821c905092915050565b60006147f2600019846008026147d4565b1980831691505092915050565b600061480b83836147e1565b9150826002028217905092915050565b614824826133f9565b67ffffffffffffffff81111561483d5761483c613d78565b5b614847825461412a565b61485282828561478e565b600060209050601f8311600181146148855760008415614873578287015190505b61487d85826147ff565b8655506148e5565b601f1984166148938661466f565b60005b828110156148bb57848901518255600182019150602085019450602081019050614896565b868310156148d857848901516148d4601f8916826147e1565b8355505b6001600288020188555050505b505050505050565b600060a08201905061490260008301886139f9565b81810360208301526149148187613450565b905081810360408301526149288186613450565b905061493760608301856139f9565b6149446080830184613a17565b9695505050505050565b7f496e73756666696369656e742066756e647320746f206275792074686973206160008201527f72742e0000000000000000000000000000000000000000000000000000000000602082015250565b60006149aa602383613404565b91506149b58261494e565b604082019050919050565b600060208201905081810360008301526149d98161499d565b9050919050565b7f43616e27742062757920617274207768696c652061756374696f6e206973206160008201527f63746976652e0000000000000000000000000000000000000000000000000000602082015250565b6000614a3c602683613404565b9150614a47826149e0565b604082019050919050565b60006020820190508181036000830152614a6b81614a2f565b9050919050565b600081519050919050565b600082825260208201905092915050565b6000614a9982614a72565b614aa38185614a7d565b9350614ab3818560208601613415565b614abc8161343f565b840191505092915050565b6000608082019050614adc6000830187613540565b614ae96020830186613540565b614af660408301856139f9565b8181036060830152614b088184614a8e565b905095945050505050565b600081519050614b228161336a565b92915050565b600060208284031215614b3e57614b3d613334565b5b6000614b4c84828501614b13565b91505092915050565b7f4e487b7100000000000000000000000000000000000000000000000000000000600052601260045260246000fd5b6000604082019050614b996000830185613540565b614ba660208301846139f9565b939250505056fea26469706673582212204ca6d5aafd27250bdc35c5bd6b5360d703b049cfa68bcf762bff5a07b310dd0c64736f6c63430008140033",
  "linkReferences": {},
  "deployedLinkReferences": {}
}